:020000040800F2
:1000000038060020A101000867220008232000080C
:1000100065220008ED040008E9280008000000003F
:10002000000000000000000000000000152400088F
:10003000FD040008000000006922000817240008E1
:10004000BB010008BB010008BB010008BB010008A0
:10005000BB010008BB010008BB010008BB01000890
:10006000BB010008BB010008BB010008F104000847
:10007000BB010008BB010008BB010008BB01000870
:10008000BB010008BB010008BB010008BB01000860
:10009000BB010008BB010008BB010008BB01000850
:1000A000BB010008BB010008BB010008BB01000840
:1000B000BB0100080000000000000000BB010008B8
:1000C000BB010008BB010008BB010008BB01000820
:1000D000BB010008BB010008BB010008BB01000810
:1000E000BB010008BB010008000000000000000088
:1000F0000000000000000000000000000000000000
:1001000000000000BB01000800000000BB01000867
:100110000000000000000000BB010008BB01000857
:10012000BB010008BB010008BB010008BB010008BF
:10013000BB010008000000000000000000000000FB
:10014000BB010008BB010008BB0100080000000063
:10015000BB010008BB010008BB010008BB0100088F
:10016000BB010008BB010008BB0100080000000043
:10017000BB010008BB0100080000000000000000F7
:10018000BB010008BB010008BB010008DFF80CD070
:1001900000F09AF800480047812B0008380600203C
:1001A0000648804706480047FEE7FEE7FEE7FEE711
:1001B000FEE7FEE7FEE7FEE7FEE7FEE7892400082C
:1001C0008D0100082DE9F05F0546002092469B4610
:1001D00088460646814640241BE02846414647465D
:1001E000224600F061F853465A46C01A914110D396
:1001F00011461846224600F048F82D1A67EB010810
:100200004F4622460120002100F03FF817EB00097D
:100210004E41201EA4F10104DFDC484631462A4647
:10022000434600F000B830BCBDE8C09FD2B201E048
:1002300000F8012B491EFBD270470022F6E710B5EB
:1002400013460A4604461946FFF7F0FF204610BD44
:10025000421C10F8011B0029FBD1801A704730B5F1
:100260000B46014600202022012409E021FA02F574
:100270009D4205D303FA02F5491B04FA02F528440E
:10028000151EA2F10102F1DC30BD202A04DB203A68
:1002900000FA02F1002070479140C2F1200320FAD9
:1002A00003F3194390407047202A04DB203A21FAD7
:1002B00002F00021704721FA02F3D040C2F120027F
:1002C0009140084319467047064C074D06E0E06828
:1002D00040F0010394E8070098471034AC42F6D38D
:1002E000FFF758FF682C0008882C00082DE9F04122
:1002F000044600270D46006801F09EFE0646206871
:1003000001F096FE30435DD02068C1682E4E890111
:1003100005D5617E012902D1217E01290BD0022D54
:100320001DD0206801F088FEB8B120688168C1F353
:10033000400169B111E00125244902E08F4232D227
:100340007F1C0268D2435206F8D440210160E8E7DE
:100350008168314041F010018160012D11D0206889
:1003600001F066FE48B120688168C1F3400121B9FF
:100370008168314041F020018160022D08D0032DB9
:1003800004D0042500F0B0FE064617E00C25F9E77E
:100390000825F7E700F0A8FE801B05280ED9206885
:1003A000806828420AD0606D40F010006065A06D42
:1003B00040F00100A0650120BDE8F0812068806860
:1003C0002842E7D10020F7E7C0FFFF7F000040A3ED
:1003D00070B50446006881688268C1F3400112F07C
:1003E000010F28D039BB816801F00D01012914D11A
:1003F0008168124A1140891C8160216803200860CD
:1004000000F072FE054612E000F06EFE401B02286E
:100410000DD920688068C00709D0606D40F01000D9
:100420006065A06D40F00100A065012070BD2068EE
:100430008068C007E8D1002070BD0000C0FFFF7FCA
:10044000F8B50446002000902068816811F0010F83
:1004500041D18168214A11422ED18168D54329407A
:10046000491C81601E48806800F0E07000020DD5D4
:100470001C481D490068B0FBF1F0401C00EB400037
:10048000800000E0401E00900028FBD100F02CFE10
:1004900006461BE0816811F0010F03D181682940F5
:1004A000491C816000F020FE801B02280ED92068C4
:1004B0000068C043C00709D0606D40F0100060655F
:1004C000A06D40F00100A0650120F8BD2068016822
:1004D000C943C907DED10020F8BD00003F000080FD
:1004E000000304500C000020400D0300FEE7000054
:1004F000014800F03DBC000078000020704772B653
:10050000FEE70000F8B500260446009690F850007B
:100510000D4601280BD0012084F850002046FFF73B
:1005200057FF0100606D04D040F010002BE0022066
:10053000F8BD20F4885040F00200606520688268B1
:10054000134B1A4005F080431A4342F00042826088
:100550004FF4912320680EE0009A521C00929A42B8
:1005600009D3606D20F0020040F01000606584F84F
:1005700050600120F8BD8268D20FEDD1606D20F08F
:10058000020040F00100606584F850600846F8BD44
:10059000C0FFFF3F2DE9F84F00270446009790F871
:1005A0005000DFF8AC930D46B846012811D0012663
:1005B00084F85060206801F03FFD60B1606D40F04C
:1005C000200060655FF0010784F85080384600F035
:1005D000D5B90220FBE76868052808D8022825D08D
:1005E000032825D0042825D0052825D006202168F9
:1005F0000C2303EA901319442A680B6B00F01F00C8
:100600004FF01F0C0CFA00FCC2F3846223EA0C03C7
:10061000824013430B63206801F00EFD8246206880
:1006200001F006FD5AEA000009D09AE00C20DEE74E
:100630001220DCE71820DAE74FF48070D7E7AA68C9
:100640002968206801F004FD20686969C268C2F366
:10065000C102520091402A69042A0FD000EB8200A7
:100660002B68026EDFF8ECC203F0F84302EA0C02DA
:100670000B431A4342F00041016672E0002101F091
:10068000D1FC400320684FF0000172D001F0CAFC99
:1006900090FAA0F0B0FA80F1286842036ED090FA88
:1006A000A0F0B0FA80F0814204D100221146206807
:1006B00001F0DDFC0121206801F0B4FC400320685A
:1006C0004FF001015DD001F0ADFC90FAA0F0B0FA5E
:1006D00080F12868420359D090FAA0F0B0FA80F077
:1006E000814204D100220121206801F0C0FC0221D6
:1006F000206801F097FC400320684FF0020148D0C9
:1007000001F090FC90FAA0F0B0FA80F12868420362
:1007100044D090FAA0F0B0FA80F0814204D10022D7
:100720000221206801F0A3FC0321206801F07AFC7B
:10073000400320684FF0030133D001F073FC90FABE
:10074000A0F0B0FA80F1286842032FD090FAA0F010
:10075000B0FA80F0814204D100220321206801F028
:1007600086FC2068816811F0010F22D0ABE000E028
:1007700004E001F057FCC0F384618DE7C0F38460AE
:1007800091E701F04FFCC0F38461A2E7C0F38460FD
:10079000A6E701F047FCC0F38461B7E7C0F38460CB
:1007A000BBE701F03FFCC0F38461CCE7C0F3846099
:1007B000D0E72A7B296850F8B03FC1F3120C23EA36
:1007C0000C0302F0180C644A22FA0CF20A4013439C
:1007D0000360E968494576D1286841031BD090FA47
:1007E000A0F1B1FA81F1491C01F01F0109294FEA7A
:1007F000403131D8002911D090FAA0F1B1FA81F13D
:1008000001F1010101F01F0106FA01F609D100BF53
:10081000C0F3846109E0C0F38461E4E7C0F384615C
:10082000EEE790FAA0F1B1FA81F101F1010101F0D6
:100830001F0146EA816102D1C0F3846003E090FAAF
:10084000A0F0B0FA80F000F1010000F01F0000EB12
:10085000400041EA005132E000290ED090FAA0F1A8
:10086000B1FA81F101F1010101F01F0106FA01F66F
:1008700006D100BFC0F3846106E0C0F38461F1E7F4
:1008800090FAA0F1B1FA81F101F1010101F01F012B
:1008900046EA816102D1C0F3846003E090FAA0F0DF
:1008A000B0FA80F000F1010000F01F002B4A00EBCD
:1008B000400002EB005041EA000141F00071AA68DB
:1008C000206801F0C5FB26482A6802423FF47CAE4E
:1008D00024488168244D254B01F0E071AA421BD1C8
:1008E0000D0219D422689A427FF46EAE826841F4F8
:1008F000000122F0E0720A4382601D481D49006831
:10090000B0FBF1F0401C00EB4000800000E0401E16
:1009100000900028FBD157E6174DAA4207D1CD0120
:1009200005D422689A42F6D141F080710AE06FF056
:100930000045EA42EFD14A02EDD422689A42EAD158
:1009400041F48001826822F0E0720A4382603BE653
:1009500000007F4000F0FF03FFFF0700000020FEC3
:100960000000088000030450000052C7000004503B
:100970000C000020400D0300000084CB18BCBDE833
:10098000E08F0068006C7047F8B54FF00005040078
:100990002E46009502D0606D10B107E00120F8BD31
:1009A000204600F0C5F8A66584F85060206881688C
:1009B000C1F3407119B18168554A114081602068C6
:1009C0008168C1F3007189B98168524A114041F0D0
:1009D00080518160504851490068B0FBF1F04000FF
:1009E000801C00E0401E00900028FBD12068816838
:1009F000C1F3007141B9616D41F010016165A16DF4
:100A000041F00101A165012501F016FB616DC906E8
:100A100000D430B1606D40F01000606501252846BB
:100A2000F8BD606D20F4807040F0020060652068C1
:100A3000806810F0010F0BD13948806810F0010F69
:100A400006D138486168826822F47C120A438260C9
:100A5000E168606B627E0843A16841EA4231084365
:100A600094F8201040EA0140012904D1A18C2E4ABB
:100A700002EB41410843A16A29B101F47071E26AB5
:100A8000014342EA01002168CA68284B1A40024328
:100A9000CA60206801F0CCFAA8B9207E94F8301022
:100AA000800340EA41022068C16844F2020399438E
:100AB0001143C16094F8380001280CD02068016906
:100AC00021F001010161206901282068016B21F0FA
:100AD0000F0111D013E0D4E90F010843D4E911123A
:100AE0001143084321680A6940F2FC739A4310439A
:100AF00040F001000861E6E7E269521E114301631C
:100B0000606D20F0020040F00100606587E70000A2
:100B1000C0FFFF5FC0FFFF7F0C000020400D0300FF
:100B200000000450000304500000FEFF07C0F0FF67
:100B300070B59EB00546142117A8FFF77EFB5C2117
:100B40006846FFF77AFB2849286888424AD14FF463
:100B5000804000908003149003240120CDE90140DF
:100B60000820039007200490022005900690C005FD
:100B70000790684600F08AFB08B1FFF7C0FC1B49EC
:100B8000C86C40F40050C864C86C00F400501C905D
:100B9000C86C40F00100C864C86C002600F0010079
:100BA0001C900B201996CDE9174017A94FF09040E3
:100BB00000F0AAF90F4C0E48C4E900068020A66098
:100BC000C4E90360400060618000A0612020E06112
:100BD000C0012062204600F035F908B1FFF78FFC14
:100BE000EC64A5621EB070BD00000450001002400D
:100BF00008000240780000202DE9F04104464069D9
:100C00000E4608280AD02068C068C00708D0606D6A
:100C100040F0200060650120BDE8F081082500E07B
:100C2000042500F061FA074614E0701C12D000F0B1
:100C30005BFAC01BB04200D866B920680068284241
:100C400008D1606D40F004006065002084F8500019
:100C50000320E1E7206800682842E6D0606D40F498
:100C600000706065206801F0EBF980B1607E70B9BA
:100C70002068006800070AD5606D20F48070606508
:100C8000606DC00403D4606D40F0010060652068B1
:100C9000C168082D05D0490401D40C210160002051
:100CA000BAE70821FAE7000010B50446006801F031
:100CB000C3F910B10221084610BD94F85000012874
:100CC0000CD0012084F850002046FFF7B9FB01004A
:100CD0004FF0000004D084F85000ECE7022010BD73
:100CE000626D40F601639A4342F480726265626D00
:100CF000D20404D5A26D22F00602A26500E0A06530
:100D000023681C221A6084F850002068C26892018F
:100D100005D5626D22F4005242F480526265826809
:100D2000024B1A40121D8260C5E70000C0FFFF7F22
:100D300010B5044690F85000012808D0012084F82E
:100D4000500003212046FFF7D1FA10B10BE002203A
:100D500010BD2046FFF73CFB28B9616D21F4885196
:100D600041F001016165002184F8501010BD0000C0
:100D7000F0B4016C0D6801680C6890F8442002F032
:100D80001C06042202FA06F32B4211D063070FD58A
:100D90000B689B0603D40B6823F004030B6090F8E8
:100DA000441001F01C018A40016C4A60016B26E08E
:100DB000022202FA06F72F424FF0000C4FF0010317
:100DC00021D0A7071FD50C68A40605D40C6824F011
:100DD0000A040C6080F82530184B0168994290F89D
:100DE000441001F01C0102FA01F202D914490A6010
:100DF00002E0124980394A6080F824C0C16A0029A3
:100E00001AD0F0BC08470822B2402A4214D0220768
:100E100012D50A6822F00E020A6090F84410026CA3
:100E200001F01C0103FA01F15160C36380F8253021
:100E300080F824C0416BE2E7F0BC704780000240BC
:100E40000404024010B568B12C4C026814232C49EC
:100E5000A24209D22B4C1444B4FBF3F39B00C0E92B
:100E600010130BE0012010BD244C64421444B4FB69
:100E7000F3F39B004364214B083B0364022380F897
:100E80002530136847F6F074A3431360D0E90223BA
:100E90001A43D0E9043423431A4383691A43C369CC
:100EA0001A43036A1A4303681C6822431A60826863
:100EB000B2F5804F19D0036C0F228B4202D151F84A
:100EC000A83F02E00D49A0310B6890F8444004F0BF
:100ED0001C04A24093430B6090F84430426803F036
:100EE0001C039A400B681A430A600021C163012267
:100EF00080F8252080F82410084610BD0804024020
:100F000000000240F8FFFDBF2DE9F04FDFF8AC9183
:100F100000230325A9F1040B85B04FF0010C0F2726
:100F200009F1040AABF1040EBFE000BF0CFA03F6AE
:100F3000324075D00C7904F00304012C01D0022C4E
:100F40001BD1846800945C0005FA04F80494009CAA
:100F500024EA08040094D1F80C80049C08FA04F8F0
:100F6000009C48EA0408C0F808804468B4430E793D
:100F7000C6F300169E40264346600C79E443A4075E
:100F80000AD0C4684FEA430805FA08F6B4438E68ED
:100F900006FA08F62643C6600C7904F00304022C16
:100FA00010D1DC0800EB84040294246A5E074FEA47
:100FB000D66807FA08F6B4430E6906FA08F626431F
:100FC000029C266204684FEA430805FA08F6B44317
:100FD0000E7906F0030606FA08F6264306604C680A
:100FE00014F4403F60D0364C266E46F0010626666B
:100FF000246E23F0030604F001040094314C3444C1
:101000000294A4689E074FEA167807FA08F6B443DC
:10101000B0F1904F05D02C4EB04204D1012612E021
:1010200042E000260FE0294EB04201D102260AE03C
:10103000274EB04201D1032605E0264EB04201D131
:10104000042600E0072606FA08F62643029CA6605E
:10105000D9F800604C46D1F8048096435FEAC8286E
:1010600000D516432660DAF800405646D1F80480D1
:1010700094435FEA882800D514433460DBF80040CD
:101080005E46D1F8048094435FEA883800D5144363
:101090003460DEF800407646D1F8048094435FEA7D
:1010A000C83800D5144334605B1C0A6832FA03F474
:1010B0007FF43CAF05B000F00FB800000804014019
:1010C00000100240000001400004004800080048F1
:1010D000000C00480010004830BCBDE8C08F0AB1C9
:1010E00081617047816270470148806870470000E5
:1010F0000000002002488168027811448160704736
:101100000000002010B50024032000F071F80F202B
:1011100000F008F808B1012401E000F025F82046AD
:1011200010BD000070B50E4E05460024307898B111
:101130004FF47A71B1FBF0F00A490968B1FBF0F0A5
:1011400000F06CFE40B9102D06D200222946501E38
:1011500000F02EF8756000E00124204670BD00000C
:10116000000000200C000020094808B5016E41F085
:1011700001010166016E01F001010091816D41F0F4
:1011800080518165806D00F08050009008BD0000A6
:1011900000100240002809DB00F01F0201219140ED
:1011A0004009800000F1E020C0F800117047000005
:1011B000F0B40E4B1B680C46C3F30223C3F10705C2
:1011C000042D00D90425191D072901D2002300E0B0
:1011D000DB1E012606FA05F1491E214099409E407A
:1011E000761E16403143F0BC01F0A4BB0CED00E0CC
:1011F000064900F0070208684FF6FF03184040EA6E
:101200000220034A10430860704700000CED00E024
:101210000000FA051649B0F5007F0868C0F34120C8
:1012200009D0022805D0086820F4C06040F480602E
:101230000860002070470128FBD0086820F4C060D7
:1012400040F4007008600B483222006850430A4A9C
:10125000B0FBF2F0401C00E0401E4A69520501D587
:101260000028F9D148694005E3D503207047000004
:10127000007000400C00002040420F00024800684F
:1012800000F4C06070470000007000402DE9F84F86
:10129000044600270088A84D3E46000515D5606C21
:1012A00060B1B0F5000F04D0B0F5400F2BD001278E
:1012B0000AE0E86840F48030E86024E00021201D66
:1012C00000F0D4FF07001ED03E46206880033AD5C8
:1012D000A86D4FF00008C00009D4A86D40F0805000
:1012E000A865A86D4FF0010800F080500090DFF86D
:1012F0004CA2DAF8001041F48071CAF80010FFF730
:10130000F3FE814610E0D5F88800616C20F44000BF
:101310000843C5F88800D8E7FFF7E6FEA0EB090010
:10132000022801D9032705E0DAF80000C005F3D54B
:10133000002F7DD04FEA0706B8F1000F03D0A86D4B
:1013400020F08050A8652078C00707D0D5F8880025
:10135000216A20F003000843C5F888002078800740
:1013600007D5D5F88800616A20F00C000843C5F85D
:1013700088002078400707D5D5F88800A16A20F0BA
:1013800030000843C5F888002078800607D5D5F8D6
:101390008800E16A20F440600843C5F8880020888E
:1013A000800507D5D5F88800E16B20F4402008437C
:1013B000C5F888002088400507D5D5F88800216C3D
:1013C00020F440100843C5F888002078400607D56F
:1013D000D5F88800216B20F440500843C5F88800F8
:1013E0002078000607D5D5F88800616B20F44040CE
:1013F0000843C5F888002088C00507D5D5F88800BF
:10140000A16B20F440300843C5F8880020684FF0F5
:10141000006700034FF0806850D5D5F88800A16CB4
:1014200020F040600843C5F88800A06CB84200E096
:1014300005E03BD1E86840F48010E8603EE0D5F874
:10144000900010F4407014D0A16D814211D0D5F8F5
:101450009000D5F8901020F4407041F48031C5F828
:101460009010D5F8901021F48031C5F89010C5F88F
:101470009000C00711D0FFF737FE074641F28839C8
:1014800007E000BFFFF730FEC11B494501D9032625
:1014900052E7D5F890008007F4D5D5F89000A16DFB
:1014A00020F440700843C5F8900045E7404505D159
:1014B0000121201D00F0DAFE00B10646206840033D
:1014C00017D5D5F88800E16C20F040600843C5F8D6
:1014D0008800E06CB84204D1E86840F48010E8600D
:1014E00007E0404505D10121201D00F0BFFE00B1FD
:1014F00006462088400411D5D5F88800216D20F0DB
:1015000040500843C5F88800206DB0F1805F05D1D8
:101510000221201D00F0AAFE00B10646208800042A
:1015200006D555F8880F616D20F08040084328608B
:10153000304600F005B80000001002400070004086
:1015400018BCBDE8E08F00002DE9F0470F4605000C
:101550006BD0494E306800F00700B84209D23068BD
:1015600020F0070038433060306800F00700B842D0
:101570005BD12878414C80070AD5A868A16801F0A2
:10158000F001884204D9A16821F0F0010143A16073
:101590002878C0072CD06868032811D0022812D000
:1015A000216898B1490500293FDAA16821F00301BB
:1015B0000143A160FFF798FD804641F2883910E0B1
:1015C00021688901EFE721688903ECE78907EAE7E9
:1015D000FFF78AFDA0EB0801494502D90320BDE8C9
:1015E000F087A068696800F00C00B0EB810FEFD1C4
:1015F000287880070AD5A868A16801F0F001884220
:1016000004D2A16821F0F0010143A160306800F02C
:101610000700B8420BD9306820F00700384330602B
:10162000306800F00700B84201D00120D7E72878E1
:10163000400705D5A068E96820F4E0600843A06091
:101640002878000706D5A068296920F4605040EA90
:10165000C100A06000F03EF8A168094AC1F303117F
:10166000515C01F01F01C840064908600648006847
:10167000BDE8F047FFF756BD0020024000100240D1
:10168000202C00080C00002004000020054806491A
:1016900000688968054AC1F30221515C01F01F010D
:1016A000C84070470C00002000100240602C000869
:1016B0000548064900688968054AC1F3C221515CA2
:1016C00001F01F01C84070470C00002000100240CC
:1016D000602C000870B52549002318468A68CC683C
:1016E00012F00C0204F00306214C4FEA640509D005
:1016F0000C2A05D0042A32D0082A00D1284670BD11
:10170000012E10D10B681B0704D4D1F89430C3F319
:10171000032302E00B68C3F30313164E56F823307D
:10172000DAB10C2AEBD1C86800F00300022818D007
:10173000032818D01846CA68CB68C2F30212C3F354
:1017400006234343521CB3FBF2F2C868C0F3416066
:10175000401C4000B2FBF0F070BD184670BD204642
:1017600070BD2046E7E72846E5E70000001002408C
:101770000024F400302C00082DE9F84304006FD059
:10178000FA4DA86800F00C06E86800F0030720781E
:10179000C00664D576B10C2E01D1012F0AD0A06904
:1017A000002828687AD040F001002860FFF79CFCF0
:1017B00080465DE02868800702D5A0690028DED059
:1017C000216A2868000703D5286800F0F00004E0CB
:1017D000D5F89400F02202EA1010814216D908468A
:1017E00000F0DAFD00283BD1286840F008002860AE
:1017F0002868216A20F0F000084328606868E169E1
:1018000020F47F4040EA0120686016E0286840F03C
:10181000080028602868216A20F0F000084328604A
:101820006868E16920F47F4040EA0120686026B9D9
:10183000206A00F0B1FD0028D5D1FFF74BFFA96861
:10184000CB4AC1F30311515C01F01F01C840C949E3
:101850000860C9480068FFF765FC00287ED12EE0CB
:10186000CAE000BFFFF740FCA0EB0800022876D8D2
:1018700028688007F6D5286840F0080028602868A6
:10188000216A20F0F000084328606868E16920F4CC
:101890007F4040EA0120686011E0FFE720F001008E
:1018A0002860FFF721FC804606E000BFFFF71CFC24
:1018B000A0EB08000228DAD828688007F6D4207840
:1018C000C00740D0082E18D00C2E01D1032F14D001
:1018D0006068B0F5803F17D0B0F5A02F286817D00A
:1018E00020F480302860286820F480202860606818
:1018F000E0B1FFF7F9FB804614E02868800322D5A9
:101900006068002878D01EE0286840F48030EDE759
:1019100040F480202860F7E7FFF7E6FBA0EB080023
:101920006428A4D828688003F6D50CE0FFF7DCFB18
:10193000804605E0FFF7D8FBA0EB0800642896D8A6
:1019400028688003F6D4207880073BD5042E11D078
:101950000C2E01D1022F0DD0E06801E0AAE1FFE0DA
:10196000002828681ED040F480702860FFF7BCFB78
:1019700007460CE0286840050CD5E0680028C1D077
:1019800008E000BFFFF7B0FBC01B022893D828680F
:101990004005F7D56868217C20F0F85040EA0160E6
:1019A00068600FE020F480702860FFF79DFB074619
:1019B00005E000BFFFF798FBC01B0228B1D82868DC
:1019C0004005F7D42078000729D560690028D5F8AC
:1019D000940012D040F00100C5F89400FFF784FB9A
:1019E000074604E0FFF780FBC01B022899D8D5F812
:1019F00094008007F6D512E02BE120F00100C5F835
:101A00009400FFF771FB074605E000BFFFF76CFB92
:101A1000C01B022885D8D5F894008007F6D420781A
:101A2000400766D5A86D0027C00008D4A86D40F017
:101A30008050A865A86D012700F0805000904F48A5
:101A40000168C90512D40168814641F480710160C2
:101A5000FFF74AFB804605E0FFF746FBA0EB0800D6
:101A600002287DD8D9F80000C005F5D5A068012866
:101A700016D00528D5F8900017D020F00100C5F841
:101A80009000D5F8900020F0040000BFC5F8900049
:101A9000A06841F28839C0B1FFF726FB80460FE00D
:101AA000D5F8900040F00100F0E740F00400C5F8E0
:101AB0009000F5E7FFF718FBA0EB080149454FD868
:101AC000D5F890008007F5D50EE0FFF70DFB8046B6
:101AD00006E000BFFFF708FBA0EB080149453FD82F
:101AE000D5F890008007F5D41FB1A86D20F0805084
:101AF000A8652078800628D5606A0028D5F8980067
:101B000012D040F00100C5F89800FFF7EDFA074643
:101B100005E000BFFFF7E8FAC01B022820D8D5F87F
:101B200098008007F6D510E020F00100C5F8980075
:101B3000FFF7DAFA074604E0FFF7D6FAC01B0228DF
:101B40000ED8D5F898008007F6D4A06AF0B3022822
:101B500016D00C2E7DD0286820F08070286000E020
:101B6000A7E0FFF7C1FA0446A6E00000001002401B
:101B7000202C00080C000020040000200070004011
:101B8000E868E26A00F00301914228D1216B00F07D
:101B9000700209011039914221D1626B00F4FE41BB
:101BA000B1EB022F1BD194F8382000F07841B1EB53
:101BB000C26F14D1A18F00F4C00249084905A1F5F4
:101BC000001191420BD194F8401000E06AE04908FE
:101BD000490600F0C060A1F1007181424BD00C2E8B
:101BE00073D02868400170D4286820F08070286085
:101BF000FFF77AFA064604E0FFF776FA801B022820
:101C000057D828688001F7D4F4E90B016FF00F0270
:101C100002EB01110843218A5204490802EB4151A9
:101C2000A26841EA02210843217D4FF07E42490823
:101C300002EB41610843217B40EAC160E968244A24
:101C400011400843E860286840F080702860E86828
:101C500000E03AE040F08070E860FFF745FA0446A3
:101C600005E000BFFFF740FA001B022821D82868D2
:101C70008001F7D527E02868800124D4286840F047
:101C800080702860E86840F08070E860FFF72CFA08
:101C9000044604E0FFF728FA001B022809D8286848
:101CA0008001F7D50FE000BFFFF71EFA001B0228E6
:101CB00002D90320BDE8F88328688001F4D4E868DD
:101CC00004490840E8600020F4E70120F2E7000042
:101CD0008C809D01FCFFEEFE70B5040009D0606AA7
:101CE000002540B125616561A56294F85D0040B1B1
:101CF0000CE0012070BD6068B0F5827FF4D0E56132
:101D0000F2E784F85C50204600F056F8022084F890
:101D10005D002068016821F040010160E1684FF436
:101D2000E062914201D9002001E04FF48050B1F50A
:101D3000706F02D0914200D0A562A188228901F47F
:101D4000827102F404421143227C02F00202114328
:101D5000227D02F001021143228B02F40072114332
:101D6000227F02F03802114394F8202002F0800212
:101D70001143228D02F40052114322681160A169BF
:101D8000042202EA114194F8242000F4805002F069
:101D90001002114394F8342002F008021143A28982
:101DA00002F47062114301432068416025660120FE
:101DB00084F85D00002070BD10B586B00446142183
:101DC0006846FEF73AFA1349206888421FD1124844
:101DD000016E41F480510166016E01F4805105915C
:101DE000C16C41F00101C164C06C694600F00100A2
:101DF0000590E02000900220019000200290032036
:101E00000390052004904FF09040FFF77DF806B056
:101E100010BD0000003001400010024010B5401E0F
:101E2000B0F1807F01D3012010BD4FF0E02460614C
:101E30000F21601700F07EFD0020A06107202061C7
:101E4000002010BD10B5040002D0E06F10B107E013
:101E5000012010BD002084F87800204600F026F80C
:101E60002420E0672068016821F001010160606AB8
:101E700010B1204600F010FB204600F0EBFB0128DB
:101E8000E7D02068416821F4904141602068816872
:101E900021F02A0181602068016841F001010160A0
:101EA0002046BDE8104000F05BBB00002DE9F04388
:101EB0009DB00446142117A8FEF7BFF95C216846BF
:101EC000FEF7BBF927492068274C03270025022687
:101ED0004FF007084FF0904988421BD10120009035
:101EE00008956846FFF7D2F908B1FEF708FB206EA7
:101EF00040F480402066206E00F480401C90E06C2E
:101F000040F00100E064E06C00F001001C904FF430
:101F1000C0601BE01549884221D1684600960995AA
:101F2000FFF7B4F908B1FEF7EAFAA06D40F400300B
:101F3000A065A06D00F400301C90E06C40F0010042
:101F4000E064E06C00F001001C900C20CDE9170665
:101F500019AA17A982E8A0014846FEF7D5FF1DB0CF
:101F6000BDE8F0830038014000100240004400400A
:101F70002DE9F84F0446C06F984615460E462028B6
:101F800002D0022000F04AB886B37DB30020C4F826
:101F900084004FF02109C4F87C90FFF7A5F8A4F85D
:101FA00050508246A4F85250A068B0F5805F01D12D
:101FB000206910B13546002600E000255FF02007BB
:101FC000B4F8520053464FF00002CDF80080D0B173
:101FD0008021204600F03EFCD0B94DB115F8010B30
:101FE00021688862E16F39EA010006D00120C9E763
:101FF00036F8020BC0F30800F2E7B4F85200401EB6
:10200000A4F85200DCE74021204600F023FC10B188
:10201000E7670320B6E7E7670020B3E718BCBDE831
:10202000E08FFEE700EB8100006E00F0F8407047A3
:102030008068C0F3C00070478068C0F380007047BC
:10204000C06810F4406F01D0002070470120704735
:10205000042303EAD15310B518444369C1F3045172
:1020600007248C40A3438A401343436110BD00EB17
:102070008100016E21F000411143016670470000AC
:1020800030B587B018216846FEF7D7F81E481D49BD
:102090000024C0E900140425456101218460C0E9E1
:1020A0000341047641760221C16180F820408462B8
:1020B000C46280F83040446380F83840FEF764FC26
:1020C00008B1FEF71CFA114800900620019002901A
:1020D0007F200594CDE9030569460B48FEF75AFABF
:1020E00008B1FEF70CFA0A4800900C2001906946EE
:1020F0000548FEF74FFA002801D0FEF700FA07B0B6
:1021000030BD000000000450140000202000F01436
:1021100040002019094808B5816C41F00101816433
:10212000806C002200F00100009011460B20FFF7A8
:102130003FF8BDE808400B20FFF72CB80010024024
:1021400010B586B014216846FEF777F81248C16CC6
:1021500041F08001C164C16C01F080010591C16C46
:1021600041F00101C164C06C4FF0904400F00100E7
:102170000590002210212046FEF7B1FF10200090AC
:1021800001200021CDE90101039169462046FEF7B7
:10219000BBFE06B010BD000000100240124810B592
:1021A000104901604FF48271416000214FF4407288
:1021B000C0E902124FF400720161C0E90512C16169
:1021C000016207224162C0E90A12016308214163EA
:1021D000FFF782FD002803D0BDE81040FEF78FB95D
:1021E00010BD000000300140C00000200D4810B5B7
:1021F0000B4901604FF4E1314160002181600C2204
:10220000C160C0E904128161C16101624162FFF7EE
:1022100019FE002803D0BDE81040FEF770B910BDCC
:1022200000380140240100200D4810B50B49016021
:102230004FF4E1314160002181600C22C160C0E9AE
:1022400004128161C16101624162FFF7FBFD002858
:1022500003D0BDE81040FEF752B910BD0044004065
:10226000AC010020FEE7FEE7704700002DE9F041D9
:10227000444C05468846E0680026810728680DD052
:10228000E16801F00301814216D1A8B1E0686968F4
:10229000C0F30210401C88420ED120E0012804D077
:1022A000022805D0032807D108E02168890701E04A
:1022B00021684905002907DB01265FE021688903C1
:1022C00002D421684903F5E7E1686A686FF00F03FB
:1022D00021F0730103EB021211430143E160206816
:1022E00020F080602060FEF7FFFE074605E000BF9B
:1022F000FEF7FAFEC01B022837D820680001F7D489
:10230000B8F1000F18D0B8F1010F1DD0287D4FF0A3
:102310007E41400801EB4060A96840EA0120216944
:10232000194A114008432061206840F08060206015
:10233000FEF7DAFE07461AE0A868297B000240EAA9
:10234000C1602169114AECE7288A1149400801EB74
:102350004050A96840EA012021690E4AE1E700BF28
:10236000FEF7C2FEC01B022801D9032606E0206842
:102370000001F5D52069A969084320613046BDE810
:10238000F081000000100240FF80FFF9FF80FF078E
:102390000000E0FFFF809FFFF8B51C4D06460024BB
:1023A000A86DC00002D5FEF769FF0DE0A86D40F0F2
:1023B0008050A865A86D00F080500090FEF75EFF89
:1023C000A96D21F08051A965B0F5007F04D0802E61
:1023D00007D94FF003040AE0802E08D9A02E01D8B7
:1023E00004E001D1022402E0702E00D1012408484B
:1023F000016821F0070121430160006800F0070037
:10240000A04201D00120F8BD0020F8BD001002401C
:10241000002002407047FEF76DBE10B596B0442113
:102420006846FDF70AFF142111A8FDF706FF4FF4D7
:102430000070FEF7EFFE08B172B6FEE70121080456
:10244000CDE90010022003240A90CDE90B411421AC
:102450000D910721CDE90E1010906846FFF78CF919
:1024600008B172B6FEE70F20CDE9110400201390E9
:1024700014901590042111A8FFF766F8002801D0E8
:1024800072B6FEE716B010BD0248016841F4700153
:102490000160704788ED00E090F82410090706D528
:1024A00001684A68436B22F400421A434A6090F87C
:1024B0002410C90706D001684A68836A22F40032F2
:1024C0001A434A6090F82410890706D501684A68C3
:1024D000C36A22F480321A434A6090F824104907F4
:1024E00006D501684A68036B22F480221A434A60C9
:1024F00090F82410C90606D501688A68836B22F417
:1025000080521A438A6090F82410890606D5016823
:102510008A68C36B22F400521A438A6090F8241030
:10252000490611D501684A68036C22F480121A43E7
:102530004A60016CB1F5801F06D101684A68436C9E
:1025400022F4C0021A434A6090F82410090606D506
:1025500001684A68806C22F4002202434A60704796
:102560002DE9F84300260446C0F88460FEF7BCFD60
:102570008046206800684FF0200500076FF07E4716
:1025800012D54346002229042046009700F062F944
:1025900050B1216851E8000F20F0800041E80002AE
:1025A000002AF6D1E56721E020680068400722D5BF
:1025B000434600224FF480012046009700F04AF97C
:1025C000C8B1216851E8000F20F4907041E8000282
:1025D000002AF6D12068083050E8001F21F00101E0
:1025E00040E80012002AF5D1C4F8805084F87860E1
:1025F0000320BDE8F883E567C4F8805044F8606FB5
:10260000666026760020F4E7016851E8002F22F486
:10261000907241E80023002BF6D10168083151E89F
:10262000002F22F0010241E80023002BF5D1016EBA
:10263000012908D1026852E8001F21F0100142E888
:102640000013002BF6D12021C0F880100021016674
:10265000816670472DE9F04104460168806822696F
:10266000E3691043626900251A431043714F0A68F9
:10267000714B1A4002430A6020684168E26821F405
:102680004051114341602168A069B94201D0226ADA
:1026900010438A6822F4306202438A6067492368E3
:1026A00067488B420DD1D0F8880010F0030006D0A7
:1026B000012847D0022843D0032830D144E001212B
:1026C0002EE060498B420BD1D0F8880010F00C004E
:1026D00034D0042836D0082832D00C281FD133E05B
:1026E00059498B420BD1D0F8880010F0300025D02A
:1026F000102827D0202823D0302810D124E0BB4236
:102700000DD1D0F8880010F4406017D0B0F5806F7C
:1027100018D0B0F5006F13D0B0F5406F14D0102171
:102720004A4A00264FF40040BB422FD171B1022922
:102730000FD004290FD0082973D10FE00021EFE753
:102740000221EDE70421EBE70821E9E7FEF79EFF10
:1027500003E0104602E0FEF7BDFFE8B3626802EB5B
:10276000420181425DD8B0EB023F5AD8010E03020C
:102770005008181871410023FDF724FD344AA0F5D4
:10278000407191424DD82168C8604BE0E3694FF633
:10279000EF77834228D1092943D2DFE801F0050809
:1027A0000B420D4242421000FEF770FF06E0FEF7BA
:1027B0007FFF03E0104602E0FEF78CFF60B14100AE
:1027C000606801EB5001B1FBF0F0A0F11001B942DB
:1027D00027D84FF6F07100E024E00140C0F342003A
:1027E00001432068C1601DE009291AD2DFE801F029
:1027F00005080B190D1919191000FEF747FF06E01F
:10280000FEF756FF03E0104602E0FEF763FF48B113
:10281000616800EB5100B0FBF1F0A0F11001B9428A
:1028200005D90125A6662846E666BDE8F08180B296
:10283000A9E7000000800040F369FFEF0038014085
:102840000010024000440040004800400024F40012
:10285000FFFC0F002DE9F047994617460D46044648
:102860004FF00008089E33E0701C31D0FEF73CFCAE
:10287000A0EB0900B04218D8BEB120680168490732
:1028800026D5802D24D0402D22D0C169C943090707
:102890000DD4082505622046FFF7B6FEC4F8845023
:1028A00084F878800120BDE8F0870320FBE7C06949
:1028B000C04300050CD421684FF400600862204634
:1028C000FFF7A2FE2020C4F8840084F87880ECE7AB
:1028D0002068C06935EA000004D00020B842C3D0A7
:1028E0000020E0E70120F9E7FEE700000FB4054B08
:1028F00010B503A9044A029800F03CF810BC5DF83A
:1029000014FB0000692B0008100000200FB4084BD6
:1029100010B504A902AA039800F02CF8044602A9F5
:10292000002000F0D4F8204610BC5DF814FB000035
:10293000CF2A00080907090E002804DB00F1E02077
:1029400080F80014704700F00F0000F1E02080F8DC
:10295000141D704702E008C8121F08C1002AFAD1EE
:1029600070477047002001E001C1121F002AFBD10F
:10297000704700002DE9FF4F89B09B4604460025B3
:1029800006E025280BD05A460B999047641C6D1C15
:1029900020780028F5D10DB0284600F095B8002722
:1029A000B8460122474900E0074314F8013F203BA5
:1029B00002FA03F00842F7D120782E2819D114F832
:1029C000010F47F004072A280ED06FF02F0220785D
:1029D000A0F1300109290CD808EB880102EB410174
:1029E00000EB0108641CF2E70A98641C50F8048BA1
:1029F0000A9020780028CED0642808D0692806D014
:102A000075281ED05A460B9990476D1C58E00A99BC
:102A10004FF00A0901C90A91002802DA40422D212B
:102A200002E0390504D52B218DF82010012103E0A7
:102A3000F90704D02021F7E78A4608AE0DE000210F
:102A4000FAE70A994FF00A0901C90A91F7E74946DE
:102A5000FDF705FC303106F8011D0028F7D1ADEB7C
:102A6000060000F12009780701D44FF00108C8459D
:102A700002DDA8EB090000E000208046002706E008
:102A800008A85A46C05D0B9990476D1C7F1C57459E
:102A9000F6DB04E030205A460B9990476D1CB8F1E4
:102AA0000001A8F10108F5DC05E016F8010B5A4613
:102AB0000B9990476D1CB9F10001A9F10109F4DCF3
:102AC000641C65E70928010030BCBDE8C08F0A68B6
:102AD000531C0B601070704770B5054686B00C46ED
:102AE0001E48FEF7E1F864211C48FEF785F8002631
:102AF00048B32E801948FEF71BF918216846FDF7E8
:102B00009CFB174800900620019002907F200390C4
:102B10000420CDE9040669461048FDF73BFD0F4847
:102B2000FEF7C2F864210D48FEF766F880B12680F2
:102B30000A48FEF7FDF80B48009069460748FDF784
:102B400029FD06B070BD0548FDF71BFF2880D1E7C1
:102B50000248FDF716FF2080EAE70000140000207D
:102B6000400020192000F01413B54FF0FF3301226C
:102B700069460248FFF7FCF900981CBD24010020BB
:102B80008CB0FEF7BFFAFFF748FCFFF7D9FAFFF762
:102B9000C1FAFFF775FAFFF729FBFFF745FBFFF7CF
:102BA000FDFA01211248FDF7ADFC12A0FFF79EFED1
:102BB00000244FF4FA5509A908A8FFF78DFFBDF8C6
:102BC0002430BDF8202013A16846FFF79FFE684619
:102BD000FDF73EFB82B2642369461048FFF7C8F94F
:102BE0000A940A98401C0A90A842FADBE3E7000026
:102BF000140000204475616C2D6368616E6E656C15
:102C000020706F6C6C696E67207374617274656498
:102C10002E0A000025752C25750A0000AC01002045
:102C2000000000000000000001020304060708097C
:102C3000A0860100400D0300801A060000350C003C
:102C400040420F0080841E0000093D0000127A00FF
:102C50000024F40000366E010048E801006CDC023C
:102C60000000000001020304882C0008000000207E
:102C700014000000542900089C2C000814000020B7
:102C80002406000064290008010000001000000074
:0C2C90000000000000093D0000000000F2
:040000050800018D61
:00000001FF
