:020000040800F2
:10000000409700246D0300089D8A0008D9770008F6
:1000100011880008B11700084DA900080000000071
:10002000000000000000000000000000AD02000819
:10003000A919000800000000090300082392000825
:100040008B0300088B0300088B0300088B03000858
:100050008B0300088B0300088B0300088B03000848
:100060008B0300088B0300088B0300088B03000838
:100070008B0300088B0300088B0300088B03000828
:100080008B0300088B0300088B0300088B03000818
:100090008B0300088B0300088B0300088B03000808
:1000A0008B0300088B0300088B0300088B030008F8
:1000B0008B0300088B0300088B0300088B030008E8
:1000C0008B0300088B0300088B0300088B030008D8
:1000D0008B0300088B0300082DA900083DA9000828
:1000E0008B0300088B030008000000008B0300084E
:1000F0008B0300088B0300088B0300088B030008A8
:100100008B0300088B0300088B0300088B03000897
:100110008B0300088B0300088B0300083994000848
:100120008B0300088B0300088B0300088B03000877
:100130008B0300088B0300088B0300088B03000867
:1001400000000000000000000000000000000000AF
:100150008B0300088B0300088B0300088B03000847
:100160008B0300088B0300088B0300088B03000837
:100170008B0300088B0300088B03000800000000BD
:100180008B0300088B0300088B0300088B03000817
:100190008B0300088B0300088B0300088B03000807
:1001A0008B0300088B0300088B0300088B030008F7
:1001B0008B0300088B0300088B0300088B030008E7
:1001C0008B0300088B0300088B0300088B030008D7
:1001D0008B0300088B0300088B0300088B030008C7
:1001E0008B0300088B0300088B0300088B030008B7
:1001F0008B0300088B0300088B0300088B030008A7
:100200008B0300088B0300088B0300088B03000896
:100210008B0300088B0300088B0300088B03000886
:100220008B0300088B0300088B030008000000000C
:100230008B0300088B030008000000008B030008FC
:100240008B0300088B0300088B0300088B03000856
:100250008B0300088B0300088B0300088B03000846
:100260008B0300088B0300088B0300088B03000836
:100270008B0300088B0300088B03000800000000BC
:100280008B0300088B0300088B03000800000000AC
:10029000000000008B030008DFF80CD000F008FC21
:1002A0000048004771FE0008409700242C4B196855
:1002B0000868B0E8F04F80F30988BFF36F8F4FF004
:1002C000000080F3118870470000000008480068B3
:1002D000006880F308884FF0000080F3148862B64D
:1002E00061B6BFF34F8FBFF36F8F00DF00BF00BF5A
:1002F00008ED00E0DFF80C00016841F470010160D6
:10030000704700BF88ED00E0EFF30980BFF36F8F07
:10031000134B1A681EF0100F08BF20ED108A20E959
:10032000F04F106009B44FF0500080F31188BFF314
:100330004F8FBFF36F8F12F0A7F84FF0000080F3DC
:10034000118809BC19680868B0E8F04F1EF0100F5A
:1003500008BFB0EC108A80F30988BFF36F8F704735
:10036000D0000024EFF30580704700000748804765
:100370000748804707480047FEE7FEE7FEE7FEE73D
:10038000FEE7FEE7FEE7FEE7FEE7FEE7C919000825
:1003900011930008990200082DE9F05F054600203E
:1003A00092469B4688460646814640241BE02846E6
:1003B00041464746224600F070F953465A46C01A55
:1003C000914110D311461846224600F057F92D1AD4
:1003D00067EB01084F4622460120002100F04EF94C
:1003E00017EB00094E41201EA4F10104DFDC484652
:1003F00031462A464346BDE8F09F2DE9F0410024EE
:10040000061B254671F1000605DA01240027D0EB12
:10041000070067EB0101161E73F1000605DA0027DD
:10042000D2EB0702012567EB0303FFF7B5FF864612
:100430000E4617469C46AC4204D00025D0EB050E74
:1004400065EB010624B10020D2EB000760EB030C42
:10045000704631463A466346BDE8F08140EA010302
:100460009B0703D009E008C9121F08C0042AFAD26A
:1004700003E011F8013B00F8013B521EF9D270472E
:10048000D2B201E000F8012B491EFBD270470022D6
:10049000F6E710B513460A4604461946FFF7F0FF83
:1004A000204610BD421C10F8011B0029FBD1801A08
:1004B000704730B504460020034600E05B1C9342C1
:1004C00003D2E05CCD5C401BF8D030BD0FB400B56A
:1004D0008DB010A909900B9000914FF0FF300A9059
:1004E00000200C9005480690054807906A4609A828
:1004F0000F9900F0F7F80DB05DF814FB0107000844
:100500001F0700082DE9FF5F1D464FF0FF3BD5E9AF
:10051000014691465F464FF00008A9697F1C01988B
:100520008847296A824688470028F6D1BAF1FF3FFA
:100530000CD024F4C064002E19DD600614D5BAF185
:100540002B0F09D0BAF12D0F0ED103E0584604B09D
:10055000BDE8F09F44F48064A9697F1C0198884736
:10056000761E8246002E02DDBAF1300F03D0B9F1BB
:10057000000F26D032E0A969761E44F400747F1C77
:10058000019888478246002E05DDBAF1780F06D023
:10059000BAF1580F03D0B9F1000F10D01EE0B9F135
:1005A000000F02D0B9F1100F18D1A969761E24F4FA
:1005B00000747F1C019888478246102002E00820C2
:1005C00000E00A20814609E008FB0908A969761EB7
:1005D00044F400747F1C019888478246002E05DD94
:1005E0004946504600F069F80028EDDAE9690198BB
:1005F0008847A00502D46FF00100A8E7E00725D1E5
:10060000600613D5600502D5C8F1000000E0404641
:1006100029680A1D2A600968220501D5087015E0BD
:10062000220701D5088011E008600FE02868011D4D
:1006300029600068210502D580F8008006E02107C6
:1006400002D5A0F8008001E0C0F8008038467EE7BF
:1006500030B50B46014600202022012409E021FA92
:1006600002F59D4205D303FA02F5491B04FA02F58F
:100670002844151EA2F10102F1DC30BD202A04DB62
:10068000203A00FA02F1002070479140C2F12003A5
:1006900020FA03F3194390407047202A04DB203AE4
:1006A00021FA02F00021704721FA02F3D040C2F192
:1006B000200291400843194670473A2800D230384A
:1006C00020F02002412A01D3A2F13700884201D351
:1006D0004FF0FF307047000002681144137801604A
:1006E00018467047D16004495161044911620021E4
:1006F0001161114600F006BAD9060008F90A00088F
:10070000426842B1016811F8013B23B1521EC0E9B1
:100710000012184670470121C160881E7047426868
:100720005AB1C368016843B983688B4205D0491E3A
:10073000521CC0E90012002070474FF0FF30704794
:100740002DE9FE4F804681EA0300C00F0C46009061
:1007500021F0004123F00045B8EB0200A94105D289
:100760004046214690461C460B46024623F0004078
:10077000104347D0270DC7F30A00C3F30A51029074
:10078000401A019040286BDAC3F3130040F4801B39
:100790000098924620B10023D2EB030A63EB0B0BC7
:1007A00001985946C0F140025046FFF767FF0646E0
:1007B0000D4650465946019A00F08CF910EB08009E
:1007C0006141002487EA115284EAE7731A4340D05A
:1007D000009A62B3019A012A4FEA075215DC001B06
:1007E00061EB02014FF0004202EA0752CDE90042FC
:1007F000001C41F5801132462B4600F028FB03B067
:10080000BDE8F08F40462146F9E7001B61EB02018D
:10081000001C41F5801300185B412018A2F5001759
:1008200047EB030140EAD570B6196D4111E06D0840
:100830004FEA360645EAC0754FEA0752001B61EBE6
:100840000201001C41F5801149084FEA30000019EF
:10085000514132462B4603B0BDE8F04F00F0E8BAF4
:100860000098012240000023D0EB020263EBE0730A
:10087000009821464FEAE074B8EB000061EB0401F8
:10088000E9E783F000435BE781F0004158E72DE999
:10089000FE4F81EA030404F0004421F0004100947B
:1008A0004FF0000B23F0004350EA01045ED052EAFF
:1008B00003045BD0C3F30A54C1F30A552C44A4F2D9
:1008C000F3340194A0FB0254C1F3130141F48011ED
:1008D000C3F3130343F4801301FB024400FB034EF4
:1008E000840A970A44EA815447EA8357A4FB0768BD
:1008F00002958D0A05FB07854FEA932C04FB0C54E7
:100900002705029D4FEA065847EA1637B5EB08055A
:100910006EEB070C870E920E47EA811742EA8312AC
:10092000A7FB0201B6EB0B0164EB00042B0D43EABD
:100930000C335E1844EB1C50DA465146E7FB0201CB
:10094000C5F313044FEA0B3343EA14534FEA04325E
:10095000019C43EA0603A4F10C040294009CCDE937
:1009600000B400F074FA03B0BDE8F08F0020014637
:10097000F9E72DE9F04D81EA030404F0004B21F082
:10098000004514464FF0000A23F0004150EA0502EA
:1009900020D054EA01021DD0C5F30A570246C5F320
:1009A0001303C1F31300C1F30A5640F4801543F456
:1009B0008013A7EB0608101BD64608F2FD3873EB30
:1009C000050002D308F1010801E092185B41B8F17B
:1009D000000F03DA00200146BDE8F08D00204FF43F
:1009E0008011064684460EE0171B73EB050705D3FE
:1009F000121B63EB050306434CEA010C49084FEA5E
:100A0000300092185B4150EA0107EDD152EA030031
:100A100012D082EA040083EA0501084305D0101BC6
:100A2000AB4106D20122002306E000224FF0004332
:100A300002E06FF0010253101AEB06004CEB085174
:100A400010EB0A0041EB0B01BDE8F04D00F0F0B9EE
:100A5000C1F30A52C1F3130140F2FF3341F4801194
:100A60009A4202DA00200146704740F233439A422C
:100A7000A2F2334202DC5242FFF70FBEFFF7FEBD87
:100A800030B5041E71F1000404DB4FF00044404215
:100A900064EB0101141E73F1000405DB1C464FF0EA
:100AA0000043524263EB0403994208BF904230BDB9
:100AB000064C074D06E0E06840F0010394E80700AB
:100AC00098471034AC42F6D3FFF7EAFB8C4101089B
:100AD000AC410108202A06DBCB17203A41FA02F08C
:100AE00043EAE07306E041FA02F3D040C2F120028B
:100AF0009140084319467047C0B24FF4F05100F0DE
:100B0000F5B900002DE9F34F8BB04FF0000801F16B
:100B10000C000C464FF0010B46460DF1080A0190FF
:100B20006269012101989047051E2DD0252D2CD0FA
:100B3000216A8847C0B16269012101989047216A02
:100B400088470028F7D1411E62690198904700E06C
:100B5000761CA1690B988847216A88470028F7D13D
:100B6000E1690B988847DBE7A1690B98884707463E
:100B7000A84201D1761CD3E7E1690B9888477F1C16
:100B800002D1B8F1000F6FD046E1002762693D46FF
:100B90003946019890472A2804D1626901210198B9
:100BA00090470125DFF884926269012101989047FE
:100BB000A0F130010A290AD24F45E5DC07EB870195
:100BC00000EB4107303FDFD445F01005ECE7E906C4
:100BD00001D46FF000476C280AD04C2814D0682844
:100BE00015D06A280DD074281CD07A281AD01DE0A0
:100BF00062690121019890476C2802D045F00405F4
:100C000014E045F002050DE045F020050AE06269B8
:100C1000012101989047682802D045F0080505E0B9
:100C200045F400656269012101989047C4E90157C4
:100C300065283DD019DC58287AD00CDC452837D0FF
:100C400004DC252826D0412831D131E046282FD098
:100C500047282CD12CE05B2877D0612828D0632846
:100C60007CD0642823D15AE0D0E06F2848D008DC3B
:100C700066281DD067281BD0692821D06E2816D180
:100C800027E0702845D0732868D0752847D0782889
:100C90000DD14DE0A1690B988847054625283FF402
:100CA00069AFE1690B9888476D1C3FF46AAFB3E008
:100CB00023466A466FF001000B99AFF300809EE077
:100CC00045F040006060A80723464FF0000236D48C
:100CD0003EE0E8077FF447AF2068011D216000680F
:100CE000290501D506701BE7290701D5068017E7FE
:100CF000A90703D5F117C0E9006111E706600FE706
:100D000045F040006060A80723464FF0080216D463
:100D10001EE040F60E0125EA0100606016E045F095
:100D200040006060A80723464FF00A0207D40FE096
:100D300045F040006060A80708D5234610226FF0F8
:100D400001000B99AFF3008059E007E02346102221
:100D50006FF001000B99FFF7D5FB50E04FF0000951
:100D60004F464B46632802D05B2806D040E0E80699
:100D700001D40120A06001273AE0626901210198B5
:100D800090475E2805D14FF00109626949460198F4
:100D90009047216939B900210A46534643F821207A
:100DA000491C0829FADBB0B3216969B9C11700EB06
:100DB000D16253110AEB830122F01F02821A012033
:100DC0000B68904003430B606269012101989047D2
:100DD0005D28E8D1B9F1000F09D00020514651F843
:100DE0002020D24341F82020401C0828F7DB02AB2A
:100DF000224600976FF001000B99AFF300800028A6
:100E00000CDA401C08D1BBF1000F05D04FF0FF30C9
:100E10000DB0BDE8F08FFFE74046F9E7E90701D1E3
:100E200008F1010806444FF0000B79E6CCCCCC0C5D
:100E300010B5141E73F1000408DA401C41F10001E2
:100E400092185B411A4301D120F0010010BD2DE939
:100E5000F04D92469B4611B1B1FA81F202E0B0FA30
:100E600080F220329046FFF709FC04460F4640EA24
:100E70000A0041EA0B0153465A46084313D0114673
:100E800053EA010019D0C8F140025046FFF705FCB3
:100E900005460E46504659464246FFF7EFFB0843CB
:100EA00005D0012004E020463946BDE8F08D002041
:100EB000054346EAE0762C4337430A986305E40A83
:100EC000A0EB08000022FD0A44EA47540A3002D58C
:100ED00000200146E9E7010510196941DDE90845EF
:100EE00000196941BDE8F04DA2E700007F2801D953
:100EF000002208E0064A02EB5002C007127800D137
:100F0000120902F00F0201209040084070470000D3
:100F10004041010870B58C1810F8015B15F007030B
:100F200001D110F8013B2A1106D110F8012B03E082
:100F300010F8016B01F8016B5B1EF9D12B0705D48A
:100F40000023521E0DD401F8013BFAE710F8013BD3
:100F5000CB1A921C03E013F8015B01F8015B521EEF
:100F6000F9D5A142D8D3002070BD000070B5044669
:100F70004F492068884203D04E492068884208D1F2
:100F80004D48006800F4403008B1012009E000201D
:100F900007E04A48006800F4403008B1012000E052
:100FA0000020B8B104F030FC05466068B0F5803F21
:100FB00006D0B0F5003F04D0B0F5403F08D105E0C1
:100FC00000BF6068000CB5FBF0F502E0AD0800E082
:100FD00000BF2BE04FF40020002102F043FF054644
:100FE0006068C0F31101F9B980140C281CD2DFE845
:100FF00000F01B060708090A0B111315171900BF8B
:1010000000BF00BF00BF00BF6068800C4000B5FBA0
:10101000F0F50AE02D0908E06D0906E0AD0904E0ED
:10102000ED0902E02D0A00E000BF00BF01F056FF0D
:1010300041F20301884210D82148854206D9206830
:10104000806840F48070216888602FE020688068A4
:1010500020F480702168886028E06D081948854276
:1010600006D82068806820F44070216888601DE000
:101070001548854208D82068806820F4407040F404
:1010800080702168886011E01048854208D8206887
:10109000806820F4407040F400702168886005E0AA
:1010A0002068806840F440702168886070BD00004E
:1010B0000020024000210240082302400863025839
:1010C000002D3101105E5F0020BCBE0040787D0124
:1010D00010B501220249034806F0B0FA10BD000025
:1010E00043000024E403002410B500201C490870CC
:1010F0001C49086001201C49086000201B49086049
:101100001B4908705A201B49088000201A490870A2
:101110001A4908709FED1A0A1A4880ED000A9FEDDF
:10112000180A194880ED000A9FED150A174880ED4E
:10113000000A9FED130A164880ED000A9FED152A5C
:10114000F3EE0E1A9FED141ADFED140A9FED140A48
:10115000144807F0A5FC14A00CF016FB10BD00000D
:1011600084000024880000248C00002490000024C7
:101170009400002496000024980000249900002484
:10118000000000009C000024A0000024A400002413
:10119000A8000024000048429A99193E0AD7A33DAE
:1011A0009A99993F0811002442616C616E63652031
:1011B0006D6F64756C6520696E697469616C697ABC
:1011C00065640D0A000000002DE9F04F2DED088B3D
:1011D00087B08046F0EE409AB0EE60AA9620069066
:1011E00011F08EFE0446B2EE040AF4EEC09AF1EE5F
:1011F00010FA08DD9FEDFD0AF4EEC09AF1EE10FA48
:1012000001D2012000E000200546B2EE040AB4EE4F
:10121000C0AAF1EE10FA08DD9FEDF40AB4EEC0AA00
:10122000F1EE10FA01D2012000E000200646002D68
:1012300000BF9FEDEF0A00FE298A002E00BF9FED40
:10124000EC0A40FE0A8AEB48EB49097800F8018075
:10125000E948007800F101004FF00A0190FBF1F23B
:1012600001FB1200E4490870E44800780A2805DA16
:10127000E2480078401CC1B2E04801704FF000091C
:10128000CA46002011E0DB49095C462904DD09F16A
:10129000010101F0FF0907E0D649095C1E2903DAC4
:1012A0000AF1010101F0FF0A401CD4490978884283
:1012B000E9DB642009FB00F0D049097890FBF1F0EC
:1012C00000F0FF0B64200AFB00F0CC49097890FB8A
:1012D000F1F0C0B20590BBF13C0F0EDDC8480078BC
:1012E00058B90120C64908705946C6A00CF04CFAFE
:1012F00005215A2007F092FD0DE005983C280ADDF3
:10130000BF480078012806D10021BD480170C7A060
:1013100005990CF039FACF48007880B1CE480068C2
:10132000201A962837D30121002007F0CBFD032196
:10133000002007F0C7FD0020C64908702BE0B04828
:10134000007840BB9DB19FEDC50AB4EEC08AF1EEB6
:1013500010FA0CD20121642007F0B4FDBE480460ED
:101360000120BC490870BEA00CF00EFA13E096B143
:101370009FEDBA0AF4EEC08AF1EE10FA0BD2032107
:10138000642007F09FFDB44804600120B149087053
:10139000B8A00CF0F9F99A48007801287CD1BA4835
:1013A000007860B10020B84908705A20B749088019
:1013B0000878052107F032FDB5A00CF0E5F9BB482F
:1013C0000068201A42F21071884266D3B748046060
:1013D0009FED870AB0EE409AB54890ED000AB1EE55
:1013E000400AB0EE40BA9FEDB30A2BEE000AF0EED1
:1013F00040AAB6EE000AF4EEC0AAF1EE10FA03DD40
:10140000B6EE000AF0EE40AABEEE000AF4EEC0AA64
:10141000F1EE10FA03D2BEEE000AF0EE40AA39EE69
:101420002A0AB0EE409A7DB376B338EEC80AF0EEE1
:10143000400AB0EEE00AB3EE0E1AB4EEC10AF1EEC5
:1014400010FA20DD9FED9C1A20EE811AB0EE410AC1
:101450009FED9A1AB4EEC10AF1EE10FA03DD9FED8A
:10146000971AB0EE410A9FED961AB4EEC10AF1EE5A
:1014700010FA03D29FED921AB0EE410A39EE001A2B
:10148000B0EE419A00BF00BF9FED8E0AB4EEC09A45
:10149000F1EE10FA06DD01E057E047E09FED890A22
:1014A000B0EE409A9FED880AB4EEC09AF1EE10FAC1
:1014B00003D29FED850AB0EE409ABDEEC90A10EE48
:1014C000100A07B26FB37148008838446F4908802A
:1014D00008460088B42801DDB42008806B480088E5
:1014E000002802DA002069490880684908780A2142
:1014F00007F094FC65480088CDE902701DB116B173
:1015000038EEC80A01E09FED3A0AB7EEC00A8DED49
:10151000000B674890ED000AB7EEC00A53EC102BA1
:1015200000E002E069A00CF02FF900BF77480068E6
:10153000201A40F6B831884247D3744804605349B2
:1015400008780A2107F06AFC3FE071480068201A19
:10155000B0F57A7F39D36E4804606E480068404227
:101560006C490860084690ED000AF8EEC00A9FED4D
:101570003B1A9FED690A00EE810AB0EE409A9FED9A
:10158000670AB4EEC09AF1EE10FA03DD9FED630A2C
:10159000B0EE409AB5EEC09AF1EE10FA03D29FED8C
:1015A000140AB0EE409ABCEEC90A10EE100A5C496B
:1015B00008800878052107F031FCB7EEC90A53EC22
:1015C000102B58A00CF0E0F800BF5B480068201A10
:1015D000B0F5967F07D35848046009480078012881
:1015E00002D156A0AFE0C0E0ACE0000000007A45B8
:1015F000000000002E110024AC000024AD000024E7
:10160000AE0000245B4354524C5D20456E746572FD
:1016100020464F435553206D6F64652028726174D6
:10162000696F3D25642525290D0A00005B4354524E
:101630004C5D20456E7465722052454C4158206DBA
:101640006F64652028726174696F3D2564252529C2
:101650000D0A0000B4000024B0000024000048423D
:101660004C65667420636F6C6C6973696F6E210DD5
:101670000A000000526967687420636F6C6C6973BC
:10168000696F6E210D0A0000C2000024C000002412
:101690005B464F4355535D2053657420616E676C04
:1016A0006520746F2039300A00000000BC0000245F
:1016B00000000024CDCC4C3D0AD7233C9A99993E9A
:1016C0009A9999BECDCC4C3FCDCC4CBF5B534C4F7F
:1016D0005720434F5252454354494F4E5D20526F5D
:1016E0006C6C3D252E3266206572726F725F746F6E
:1016F000663D252E316620737465703D256420613A
:101700006E676C653D25640A00000000C40000247B
:10171000C8000024CC0000240000B4420000344380
:10172000B60000245357494E4720616E676C653DF3
:10173000252E30660A000000B8000024464F4355AD
:10174000530000000BA007460C480088B7EEE80ADB
:1017500004908DED020BB7EEC80A8DED000B4246EA
:10176000394607A00CF010F800BF07B0BDEC088B9D
:10177000BDE8F08F52454C4158000000B6000024EF
:101780005B25735D204154543D253364207C204CFF
:101790003D25332E306620523D25332E3066207C89
:1017A00020616E676C653D2533640D0A0000000002
:1017B00000BFFEE72DE9FF470546002403A92846A0
:1017C0000AF0FAFA044695F87C9340F27F30465DC1
:1017D00034B902AB01AA694628460AF072F90446F8
:1017E0001CB928460BF00FFF04462CB94FF4FA71D0
:1017F000284609F027FC044644B9D5F8148043462E
:1018000032464946284607F07DFB044644B928463F
:101810009DE80E000BF0AAFE04460CB90298286160
:1018200024B903A928460BF0C9FE044634B9AF78A1
:101830000622394628460AF0F0FF044614B940F261
:101840007E304655204604B0BDE8F0873EB50346DD
:101850000C46002017A52D68029517A52D68019547
:1018600016A52D68009501251570012C02D0022CBB
:1018700004D101E0002103E0012101E0022100BFC9
:1018800000BF032B08D0042B02D0082B0CD107E09B
:1018900002AD6D5C15700AE001AD6D5C157006E07F
:1018A0001DF80150157002E06FF0070000BF00BF87
:1018B0003EBD0000020103000706080024252600A3
:1018C0002DE9F04F06460F4613464FF496784FF039
:1018D0001E09DFF884C0DFF884A041F69A1B0EB918
:1018E000002037E0072F01D1322033E0B3F93CE08C
:1018F000C64502DA4FEA094103E0B3F93CE00EFBCA
:101900000BF181B1B3F838E00EFB0AF202EB5102A1
:10191000B2FBF1F21204624502D8ACEB020404E01F
:101920004FF4481401E04FF4C804C4F30745642D94
:1019300002DD4FF0640E00E0AE46BEF1320F06DD70
:10194000642D02DD4FF0640E03E0AE4601E04FF07F
:10195000320E7046BDE8F08F33B37500CDCC300049
:1019600001460A1F102A1BD2DFE802F00E0C1012EB
:1019700016181A1A141A1A1A1A1A080A0A2011E042
:1019800006200FE004200DE002200BE0012009E01A
:10199000072007E0092005E0032003E0002001E024
:1019A000FF2000BF00BF704770470146B1F5967F2A
:1019B00001DB14207047642901DC6420FAE73C2035
:1019C000F8E772B600BFFEE70748006840F0020083
:1019D0000549086000BF04480838006800F400505A
:1019E0000028F8D0704700000C4802582DE9F04359
:1019F00099B004460E464FF00008306800B100BFB1
:101A000000BF94F85000012803D1022019B0BDE8AE
:101A1000F083012084F8500000BF0020159016903C
:101A200046492068884202D14548009001E00020E4
:101A30000090009850B9606D40F02000606500BFD4
:101A4000002084F8500000BF0120DFE7009806F076
:101A500056FA0746206806F052FA002861D1002F96
:101A60005FD136492068884203D0354920688842D2
:101A700001D1344800E034480546306858B3A868BE
:101A800020F4404071680843A8602C4920688842CF
:101A900003D02B492068884201D12A4800E02A4817
:101AA0002849884209D1254806F01AFA8146244877
:101AB00006F016FA49EA000002E0244806F010FA9F
:101AC00070BBB16830680843A96840F61F72914343
:101AD0000843A8602BE0A86820F44040A86017499C
:101AE0002068884203D016492068884201D11548F1
:101AF00000E015481349884209D1104806F0F0F972
:101B000081460F4806F0ECF949EA000002E00F4870
:101B100006F0E6F920B9A86840F61F718843A8606E
:101B200005E0606D40F0200060654FF0010800BFE7
:101B3000002084F8500000BF404667E700200240C4
:101B40000021024000230240006302580060025856
:101B50002DE9F84F04460D464FF0000A0020009092
:101B600094F83800012800D100E000BFFC49E86883
:101B7000884200D00EE0FB492068884200D100BFB7
:101B8000F9492068884200D100BFF849206888429E
:101B900000D100BF00BF94F85000012802D10220FC
:101BA000BDE8F88F012084F8500000BF206806F0DF
:101BB000A1F9002870D1286800F00040A8B9206879
:101BC000C1692868C0F3130018B92868C0F384609D
:101BD00004E0286890FAA0F0B0FA80F000F01F024C
:101BE0000120904001432068C1612168D5E90020AF
:101BF00001F1300CC0F3012B0CEB8B03D3F800C0C8
:101C000000F01F0E4FF01F0B0BFA0EFB2CEA0B0C13
:101C100000F01F0BC2F3846E0EFA0BFE4CEA0E0CA2
:101C2000C3F800C000BF206806F064F98146206850
:101C300006F04CF98046B9F1000F78D1B8F1000FE9
:101C4000FBD12168AA68286801F1140CC0F3406B2D
:101C50000CEB8B03D3F800C0C0F3045E4FF0070B0E
:101C60000BFA0EFB2CEA0B0CC0F3045B02FA0BFB25
:101C70004CEA0B0CC3F800C000BFBD48006800F080
:101C80007040B0F1805F08D168692168C968C1F30C
:101C900082014900884015E013E22068C06800F026
:101CA000100038B968692168C968C1F38201490028
:101CB000884007E068692168C96801F01001890857
:101CC000490088400746286904283FD020682A68D0
:101CD000296900F1600C0CEB8103D3F800C00CF013
:101CE000004C02F0F84B4BEA070B4CEA0B0CC3F824
:101CF00000C000BF20686A7E2969012A01D1D2078D
:101D000000E00022134600F1600C0CEB8102D2F8D7
:101D100000C02CF0004C4CEA030CC2F800C000BF1D
:101D200020682B7E2969012B02D1DB0201E045E00E
:101D300000231A46036923F4F04301F01F0C02FA52
:101D40000CFC43EA0C03036100BF37E02068006E1F
:101D500000F0F8402978B0EB816F05D12068006E63
:101D600020F00040216808662068406E00F0F840CE
:101D70002978B0EB816F05D12068406E20F00040DB
:101D8000216848662068806E00F0F8402978B0EB42
:101D9000816F05D12068806E20F000402168886640
:101DA0002068C06E00F0F8402978B0EB816F05D153
:101DB0002068C06E20F000402168C866206806F0E8
:101DC0008AF800286FD12068EA682968D0F8C0C076
:101DD000C1F313032CEA030C02F0180B654B23FA32
:101DE0000BF30B404CEA030CC0F8C0C000BF5C49C9
:101DF000E868884270D15B4B206898423DD15E4BC9
:101E00002A689A4201D1012276E05C4B2A689A4204
:101E100001D15B4A70E05B4B2A689A4201D15A4A71
:101E20006AE05A4B2A689A4201D1594A64E0594BF8
:101E30002A689A4201D1584A5EE0584B2A689A4271
:101E400001D1574A58E0564B2A689A4201D1554A67
:101E500052E0544B2A689A4201D1534A4CE0534B0A
:101E60002A689A4201D1524A46E0524B2A689A4265
:101E700001D1514A40E000223EE03B4B22689A42A9
:101E800039D13D4B2A689A4201D1012234E03B4BC3
:101E90002A689A4201D13A4A2EE03A4B2A689A427D
:101EA00002D1394A28E0B4E0384B2A689A4201D17D
:101EB000374A21E0374B2A689A4201D1364A1BE063
:101EC000364B2A689A4201D1354A15E0344B2A68CC
:101ED0009A4202D1334A0FE023E0324B2A689A42F9
:101EE00001D1314A08E0334B2A689A4201D1324A83
:101EF00002E0002200E000221146C369C1F3130290
:101F000012B9C1F3846203E091FAA1F2B2FA82F24B
:101F100002F01F0C012202FA0CF21343C36100BF4E
:101F200000BF286800F00040002872D00D4A2168E8
:101F3000914203D00C4A2168914201D11F4900E02F
:101F40001F490846816801F0E07600BF0549206816
:101F5000884203D004492068884233D1174832E0D0
:101F60000000FF47002002400021024000600258AC
:101F70000010005CFFFF0F00020030040400600846
:101F8000400020190800900C8000501D1000C01067
:101F9000000180212000F0140002B0250004002A76
:101FA0000008302E001060320020903600002143DF
:101FB000000052470000844B0000B84F002302404D
:101FC0000063025845484649884209D1454805F012
:101FD00082FF8346444805F07EFF4BEA000002E0A2
:101FE000424805F078FFE8BB41492868884227D17C
:101FF00006F4000020BB3D492068884267D1394B78
:1020000022689A4203D0384B22689A4202D1344A5D
:1020100001E032E0314A104646F4000105F074FF59
:10202000344800683449B0FBF1F0401C4000009097
:1020300002E00098401E009000980028F9D146E088
:102040002E492868884219D106F08070B0B9274916
:10205000206888423BD1234B22689A4205D0224B0C
:10206000226800E026E09A4201D11D4A00E01B4AA6
:10207000104646F0807105F047FF28E020492868A7
:10208000884224D106F4800008BB184920688842A1
:102090001DD1144B22689A4203D0134B22689A42F6
:1020A00001D10F4A00E00D4A104646F4800105F0C8
:1020B0002BFF0CE0606D40F0200060654FF0010ADE
:1020C00005E0606D40F0200060654FF0010A00BF40
:1020D000002084F8500000BF504661E500630258BC
:1020E000002302400020024000210240006002580C
:1020F000000084CB20000024400D0300000052C7E4
:102100000000B8CF2DE9F84F04464FF00009002039
:10211000009014B90120BDE8F88FE06818B1207F65
:10212000012800D100BF606D30B9204600F030F9C1
:102130000020A06584F8500020688168C1F34071D8
:1021400031B120688168874A1140816000BF00BFBB
:10215000206805F0CAFEA8B920688168824A11404B
:1021600041F08051816000BF804800688049B0FB29
:10217000F1F0401C009002E00098401E0090009892
:102180000028F9D1206805F0B0FE48B9606D40F034
:1021900010006065A06D40F00100A0654FF00109DE
:1021A000206805F0A7FE0646606D00F010000028CC
:1021B0007ED1002EFCD1606D20F4807040F00200D2
:1021C0006065206805F087FE78BB6A492068884210
:1021D00003D069492068884201D1684800E0684816
:1021E0006649884209D1634805F075FE8246624817
:1021F00005F071FE4AEA000002E0624805F06BFE5D
:1022000098B95C4B22689A4203D05B4B22689A4291
:1022100001D15A4A00E05A4A10466168826822F4A5
:102220007C120A43826000BF00BF00F057FE41F2FB
:10223000030188420ED9A06810280BD1607D216B64
:1022400041EA4030A168084340F00C01207F41EA98
:10225000004508E0607D216B41EA4030A1680843F9
:10226000217F40EA0145207F012803D1208C401EB8
:1022700045EA4045606A28B1A08C00F47870A16AF4
:10228000084305432068C0683F4908402843216847
:10229000C860206805F02EFE8046206805F016FE16
:1022A0000746B8F1000F3BD1D7BB207DE16A00E0C3
:1022B00050E041EA80352068C06844F20301884359
:1022C00028432168C86094F83800012817D1606A53
:1022D00008B1A06A00B900BFA08F401E012141EAE9
:1022E0000041206C0843616C0843A16C08432168DD
:1022F0000969264A114008432168086105E0206801
:10230000006920F00100216808612068006920F060
:102310007040616B0843216808612046FEF726FE85
:10232000E068012809D12068006B20F00F00A16946
:10233000491E08432168086305E02068006B20F00F
:102340000F0021680863606D20F0020040F001007A
:10235000606505E0606D40F0100060654FF00109B8
:102360004846D8E6C0FFFF5FC0FFFF7F2000002483
:10237000400D0300002002400021024000230240E3
:10238000006302580060025803C0F0FF1EF800FC12
:1023900010B5B8B00446142132A8FEF778F8C02171
:1023A00002A8FEF774F81D492068884234D14FF422
:1023B00000210020CDE9021088102B9002A802F025
:1023C000A9F908B1FFF7FDFA00BF1548006840F011
:1023D0002000134908600846006800F020000190C2
:1023E00000BF00BF00BF0E480830006840F0010089
:1023F0000B49083108600846006800F001000190B0
:1024000000BF00BF012032900320339000203490A1
:1024100032A9044800F056FC38B010BD002002403C
:10242000D8440258000002582DE9F041044600F05B
:102430005BFD804614B90120BDE8F08194F83500B9
:10244000022808D08020606500BF002084F8340096
:1024500000BF0120F0E7FE492068884249D0FC49CE
:1024600018312068884244D0F949303120688842C8
:102470003FD0F7494831206888423AD0F44960316A
:102480002068884235D0F24978312068884230D0BF
:10249000EF499031206888422BD0ED49A83120685F
:1024A000884226D0EB492068884222D0E949183179
:1024B000206888421DD0E74930312068884218D012
:1024C000E44948312068884213D0E24960312068ED
:1024D00088420ED0DF4978312068884209D0DD4932
:1024E00090312068884204D0DA49A83120688842B7
:1024F00001D1012000E0002068B12068006820F0D0
:102500001E00216808602068406920F08000216872
:102510004861256806E02068006820F00E00216808
:1025200008602568CA492068884270D0C8491831B7
:10253000206888426BD0C64930312068884266D016
:10254000C34948312068884261D0C1496031206860
:1025500088425CD0BE4978312068884257D0BC4957
:1025600090312068884252D0B949A8312068884209
:102570004DD0B8492068884249D0B6491831206802
:10258000884244D0B3493031206888423FD0B149B5
:102590004831206888423AD0AE496031206888428C
:1025A00035D0AC4978312068884230D0A949903183
:1025B000206888422BD0A749A8312068884226D0BD
:1025C000A5492068884222D0A34914312068884256
:1025D0001DD0A14928312068884218D09E493C313D
:1025E0002068884213D09C495031206888420ED020
:1025F000994964312068884209D097497831206828
:10260000884204D094498C312068884201D101204D
:1026100000E0002028B1206E006820F48070216E58
:1026200008608B492068884249D089491831206860
:10263000884244D086493031206888423FD084495E
:102640004831206888423AD0814960312068884208
:1026500035D07F4978312068884230D07C4990312C
:10266000206888422BD07A49A8312068884226D039
:1026700078492068884222D07649183120688842FB
:102680001DD0744930312068884218D071494831D2
:102690002068884213D06F496031206888420ED08C
:1026A0006C4978312068884209D06A4990312068A5
:1026B000884204D06749A8312068884206D1206842
:1026C000006820F001002168086005E020680068CB
:1026D00020F001002168086011E000F005FCA0EB8B
:1026E000080005280BD920206065032084F83500F8
:1026F00000BF002084F8340000BF01209CE6286859
:1027000000F001000028E8D151492068884249D0F2
:102710004F4918312068884244D04D4930312068F3
:1027200088423FD04A494831206888423AD04849D7
:1027300060312068884235D0454978312068884228
:1027400030D043499031206888422BD04049A8318D
:102750002068884226D03F492068884222D03D49DF
:102760001831206888421DD03A49303120688842AB
:1027700018D0384948312068884213D03549603133
:10278000206888420ED0334978312068884209D0C9
:10279000304990312068884204D02E49A831206801
:1027A000884201D1012000E0002040B1A66D94F8DC
:1027B0005C0000F01F013F208840B06007E0A76D7B
:1027C00094F85C0000F01F010120884078602049E7
:1027D0002068884276D01E4918312068884271D01E
:1027E0001B493031206888426CD019494831206833
:1027F000884267D0164960312068884262D0144907
:102800007831206888425DD0114990312068884233
:1028100058D00F49A8312068884253D00D4920680C
:1028200088424FD00B491831206888424AD0094964
:1028300030312068884245D00649483120688842B6
:1028400040D004496031206888423BD0014905E00E
:1028500010000240100402400854025878312068E9
:1028600088422FD02549206888422BD0234918312F
:102870002068884226D022492068884222D02049F8
:102880001431206888421DD01D49283120688842B3
:1028900018D01B493C312068884213D01849503168
:1028A000206888420ED0164964312068884209D0D9
:1028B000134978312068884204D011498C3120684E
:1028C000884201D1012000E0002068B1D4E919104C
:1028D0004860E06E40B1E06E006820F48070E16E08
:1028E0000860D4E91C104860012084F8350000BF5E
:1028F000002084F8340000BF00BF9DE5A004024022
:102900000854025870B504460CB9012070BD94F803
:102910003500022803D0802060650120F6E7DC49FD
:102920002068884249D0DA4918312068884244D06A
:10293000D7493031206888423FD0D5494831206896
:1029400088423AD0D24960312068884235D0D04997
:1029500078312068884230D0CD4990312068884253
:102960002BD0CB49A8312068884226D0C94920689D
:10297000884222D0C7491831206888421DD0C549F5
:1029800030312068884218D0C249483120688842D6
:1029900013D0C0496031206888420ED0BD497831DB
:1029A0002068884209D0BB4990312068884204D011
:1029B000B849A8312068884201D1012000E00020F8
:1029C000F0B3042084F83500B149206888424BD028
:1029D000AF4918312068884246D0AD49303120686F
:1029E000884241D0AA494831206888423CD0A84951
:1029F00060312068884237D0A54978312068884204
:102A000032D0A3499031206888422DD0A049A83106
:102A10002068884228D09F492068884224D09D4958
:102A20001831206888421FD09A4930312068884286
:102A30001AD0984948312068884215D0954900E05D
:102A400020E06031206888420ED0924978312068B9
:102A5000884209D08F4990312068884204D08D493E
:102A6000A8312068884206D12068006820F0010063
:102A70002168086009E12068006820F001002168F1
:102A8000086002E12068006820F00E0021680860FC
:102A90007F492068884249D07D49183120688842A2
:102AA00044D07B493031206888423FD07849483152
:102AB000206888423AD0764960312068884235D013
:102AC000734978312068884230D07149903120684C
:102AD00088422BD06E49A8312068884226D06D49A3
:102AE0002068884222D06B491831206888421DD066
:102AF000684930312068884218D0664948312068DA
:102B0000884213D063496031206888420ED0614901
:102B100078312068884209D05E4990312068884227
:102B200004D05C49A8312068884206D1206800683A
:102B300020F001002168086005E02068006820F0AE
:102B400001002168086052492068884270D05049CD
:102B50001831206888426BD04D4930312068884256
:102B600066D04B4948312068884261D0484960317D
:102B7000206888425CD0464978312068884257D026
:102B8000434990312068884252D04149A831206899
:102B900088424DD03F492068884249D03D4918318C
:102BA0002068884244D03B493031206888423FD079
:102BB00038494831206888423AD036496031206827
:102BC000884235D0334978312068884230D0314945
:102BD0009031206888422BD02E49A8312068884245
:102BE00026D02D492068884222D02B4914312068F4
:102BF00088421DD0284928312068884218D02649AB
:102C00003C312068884213D02349503120688842E3
:102C10000ED0214964312068884209D01E4978319C
:102C20002068884204D01C498C312068884201D138
:102C3000012000E00020D8B1206E006820F48070F0
:102C4000216E0860A56D94F85C0000F01F01012062
:102C500088406860D4E919104860E06E40B1E06EC9
:102C6000006820F48070E16E0860D4E91C104860B0
:102C7000012084F8350000BF002084F8340000BF34
:102C8000206D10B12046216D884700203EE60000EF
:102C900010000240100402400854025870B5044667
:102CA00000F022F906462546681C10B10448007859
:102CB000054400BF00F018F9801BA842FAD370BD8C
:102CC0001C000024F8B502460B4600216F4DD7E0EA
:102CD00001278F401E6806EA0704002C72D01E7977
:102CE00006F00306012E04D01E7906F00306022E1C
:102CF00013D190684F000326BE40B0434F00DE68FA
:102D0000BE4030439060506801268E40B0431E792B
:102D1000C6F300168E40304350601E7906F003065D
:102D2000032E09D0D0684F000326BE40B0434F00A9
:102D30009E68BE403043D0601E7906F00306022E26
:102D400013D1CF0802F1200656F827004E07F70EE0
:102D50000F26BE40B0434F07FF0E1E69BE403043F2
:102D6000CF0802F1200646F8270010684F0003261E
:102D7000BE40B0431E7906F003064F00BE4030430C
:102D800010605E6806F44036002E78D000BF404EDA
:102D9000366846F002063E4F3E603E46366806F014
:102DA0000206009600BF00BF3A4E8F0856F8270073
:102DB0008E07370F0F26BE40B043374EB24202D1C6
:102DC00000262EE05BE0354EB24201D1012628E01C
:102DD000334EB24201D1022623E0324EB24201D13B
:102DE00003261EE0304EB24201D1042619E02F4ED8
:102DF000B24201D1052614E02D4EB24201D1062681
:102E00000FE02C4EB24201D107260AE02A4EB24210
:102E100001D1082605E0294EB24201D1092600E081
:102E20000A268F073F0FBE4030431A4E8F0846F8E0
:102E300027004FF0B0463068A0435E6806F4801665
:102E400006B120434FF0B04630607068A0435E6822
:102E500006F4001606B120434FF0B0467060686873
:102E6000A0435E6806F4003606B120436860286817
:102E7000A0435E6806F4803606B120432860491CF2
:102E80001E68CE40002E7FF423AFF8BD80000058AE
:102E9000F444025808040058000002580004025884
:102EA00000080258000C0258001002580014025882
:102EB00000180258001C0258002002580024025832
:102EC000024613690B400BB1012000E0002070475F
:102ED0000AB1816101E00B04836170470148006819
:102EE000000C70470010005C01480068704700004B
:102EF00014000024024692F8410020282DD100BF82
:102F000092F84000012801D102207047012082F888
:102F1000400000BF242082F841001068006820F0C3
:102F20000100136818601068006820F4805013686E
:102F3000186010680068084313681860106800681B
:102F400040F0010013681860202082F8410000BFA3
:102F5000002082F8400000BFD7E70220D5E710B577
:102F600002460B4692F8410020282AD100BF92F871
:102F70004000012801D1022010BD012082F840004C
:102F800000BF242082F841001068006820F0010092
:102F9000146820601068016821F4706141EA03211F
:102FA000106801601068006840F00100146820603B
:102FB000202082F8410000BF002082F8400000BFBE
:102FC000DAE70220D8E7000010B504460CB901206A
:102FD00010BD94F8410028B9002084F84000204634
:102FE00000F0FAF9242084F841002068006820F0FD
:102FF000010021680860606820F070602168086145
:103000002068806820F4004021688860E06801281A
:1030100005D1A06840F400402168886004E0A06801
:1030200040F4044021688860E068022806D12068E6
:10303000406840F400602168486005E0206840680E
:1030400020F4006021684860206840681349084304
:10305000216848602068C06820F400402168C8608A
:10306000D4E904010843A16940EA01202168C8604D
:10307000D4E907010843216808602068006840F02F
:1030800001002168086000206064202084F841006D
:103090000020206384F8420000BF99E7008000020E
:1030A0002DE9FC5F0446894692469B46DDE90C7893
:1030B0000E9E94F8410020287ED117B1B8F1000F80
:1030C00005D14FF4007060640120BDE8FC9F00BF93
:1030D00094F84000012801D10220F6E7012084F88D
:1030E000400000BFFFF700FF054619230122D1036E
:1030F0002046009504F0B6FC08B10120E5E7222047
:1031000084F84100402084F8420000206064676237
:10311000A4F82A8060635B46524649462046CDE9C2
:10312000006504F007FC30B100BF002084F84000C7
:1031300000BF0120C9E7608DFF280CD9FF20208542
:103140003D48009094F828204FF08073494620466F
:1031500004F06CFC0BE0608D20853748009094F8FB
:1031600028204FF000734946204604F05FFC00BF62
:103170003346002204212046009504F073FC08B178
:103180000120A2E72068406A616A0870606A401CFA
:103190006062208D401E2085608D401E6085608DA0
:1031A00048B3208D38BB334600228021204600954D
:1031B00004F058FC18B100E03CE0012085E7608D88
:1031C000FF280CD9FF2020850020009094F82820AB
:1031D0004FF080734946204604F028FC0BE0608DD8
:1031E00020850020009094F828204FF00073494675
:1031F000204604F01BFC608D0028B9D12A463146D8
:10320000204604F070FC08B101205EE72020216810
:10321000C86120684068094908402168486020204A
:1032200084F84100002084F8420000BF84F8400088
:1032300000BF4AE7022048E70024008000E800FEC3
:103240002DE9FC5F0446894692469B46DDE90C78F1
:103250000E9E94F8410020287DD117B1B8F1000FDF
:1032600005D14FF4007060640120BDE8FC9F00BFF1
:1032700094F84000012801D10220F6E7012084F8EB
:10328000400000BFFFF730FE054619230122D1039D
:103290002046009504F0E6FB08B10120E5E7212077
:1032A00084F84100402084F8420000206064676296
:1032B000A4F82A8060635B46524649462046CDE921
:1032C000006504F075FB30B100BF002084F84000B9
:1032D00000BF0120C9E7608DFF280CD9FF202085A1
:1032E0000020009094F828204FF080734946204633
:1032F00004F09CFB0BE0608D20850020009094F88A
:1033000028204FF000734946204604F08FFB00BF91
:103310002A463146204604F016FC08B10120A4E7F5
:10332000606A007821688862606A401C6062608D13
:10333000401E6085208D401E2085608D40B3208D0D
:1033400030BB3346002280212046009504F08AFBE2
:1033500010B1012089E73AE0608DFF280CD9FF20E9
:1033600020850020009094F828204FF08073494673
:10337000204604F05BFB0BE0608D20850020009070
:1033800094F828204FF000734946204604F04EFB85
:10339000608D0028BCD12A463146204604F0A3FBAC
:1033A00008B1012061E720202168C86120684068D9
:1033B0000849084021684860202084F84100002026
:1033C00084F8420000BF84F8400000BF4DE70220AF
:1033D0004BE7000000E800FE10B5B8B00446142129
:1033E00032A8FDF754F8C02102A8FDF750F81E4995
:1033F0002068884236D108210020CDE902102390B0
:1034000002A801F087F908B1FEF7DBFA00BF174800
:10341000006840F00200154908600846006800F0A6
:103420000200019000BF00BF4FF4407032901220A4
:1034300033900020349035900420369032A90C4807
:10344000FFF740FC00BF09480830006840F4001056
:103450000649083108600846006800F40010019031
:1034600000BF00BF38B010BD00540040E044025817
:1034700000040258034800680349097808440149D8
:1034800008607047140000241C00002410B50320BD
:1034900000F04AF902F002FA10490968C1F3032169
:1034A0000F4A515C01F01F0120FA01F40B4800683B
:1034B00000F00F001146085C00F01F0024FA00F035
:1034C00008490860084804600F2000F00FF808B1B0
:1034D000012010BD00F0BEF80020FAE718440258A1
:1034E000F83301082400002420000024F0B58BB03C
:1034F0000446102C0AD200222146372000F0D6F8CC
:10350000372000F0BFF81C48046002E001200BB037
:10351000F0BD00BF1948006840F02000174908605E
:103520000846006800F02000019000BF00BF02A91B
:1035300003A802F033F9089E1EB902F08BF9054684
:1035400002E002F087F945000D48B5FBF0F0471E98
:103550000C480D49086040F2E7310B48C1604760F4
:1035600000210161816003F0D3F818B9064803F027
:1035700007F9CCE70120CAE718000024E844025804
:1035800040420F00001400400C0500244178154A09
:10359000116014490831096821F00101114A08320B
:1035A0001160121F41681160017B0907C27A41EA6C
:1035B0000261827A41EAC241427B41EA8241827BD6
:1035C00041EA4241C27B41EA0241427A41EA022198
:1035D000027A41EA420102781143024A083211603C
:1035E0007047000098ED00E000BF00BF00BFBFF3D0
:1035F0005F8F00BF00BF00BF0548006820F4803027
:1036000003490860002002497031086070470000DB
:1036100024ED00E040F001010D4A11600C497039C1
:10362000096841F480310A4A703A116000BF00BF56
:1036300000BFBFF34F8F00BF00BF00BF00BF00BF80
:1036400000BFBFF36F8F00BF00BF00BF7047000017
:1036500094ED00E008B500BF0948006840F00200A2
:10366000074908600846006800F00200009000BFAB
:1036700000BF00220F21901E00F018F808BD0000C6
:10368000F44402580146084600280DDB00BF00BF85
:1036900000F01F0301229A4043099B0003F1E0233D
:1036A000C3F8002100BF00BF00BF70472DE9F05FE5
:1036B00080460D4616460AF0A3F8074639462A46C4
:1036C000334601F00700C0F1070ABAF1040F02D92E
:1036D0004FF0040A01E0C0F1070AD14600F1040AE4
:1036E000BAF1070F02D24FF0000A01E0A0F1030A7D
:1036F000D4464FF0010A0AFA09FAAAF1010A0AEAC5
:10370000020A0AFA0CFA4FF0010B0BFA0CFBABF1B0
:10371000010B0BEA030B4AEA0B04214640460AF070
:1037200077F8BDE8F09F000000BF00F00702064BED
:1037300019684FF6FF031940044B0B4343EA02217B
:10374000014B196000BF70470CED00E00000FA0566
:1037500070B5044615480068C0F3800048B91348A6
:10376000006800F00700A04201D0012070BD0020D9
:10377000FCE70E48006820F0070020430B49086072
:10378000FFF7B2FB054607E0FFF7AEFB401BB0F5C5
:103790007A7F01D90120E9E7044808380068C0F3BE
:1037A00040300028F0D00020E0E700000C4802582C
:1037B00010B502F029F805490968C1F30211044A5D
:1037C000515C01F01F01C84010BD000020440258A8
:1037D000F833010870B50146844D2D6805F00303E8
:1037E000824D2D68C5F30510804D2D1D2D6805F007
:1037F00001047E4D0C352D68C5F3CC0515FB04F591
:1038000001EE105AB8EE411AF0EE410A00286FD0CE
:1038100023B1012B4ED0022B6BD16BE0734D283DB1
:103820002D68C5F340153DB3704D283D2D68C5F397
:10383000C1066F4D25FA06F201EE102AF8EE411A84
:1038400001EE100AB8EE411A81EE812A9FED691A45
:10385000C0EE811A654D08352D68C5F3080501EEE7
:10386000105AB8EE411A31EE811AF7EE001A31EE15
:10387000211A22EE010A1CE001EE100AB8EE411AEC
:10388000DFED5D1A81EE812A9FED5A1AC0EE811A92
:10389000564D08352D68C5F3080501EE105AB8EEEF
:1038A000411A31EE811AF7EE001A31EE211A22EE9A
:1038B000010A5BE001EE100AB8EE411ADFED4F1A83
:1038C00081EE812A9FED4B1AC0EE811A474D0835D3
:1038D0002D68C5F3080501EE105AB8EE411A31EE15
:1038E000811AF7EE001A31EE211A22EE010A3DE0AC
:1038F00077E01DE001EE100AB8EE411A9FED402A74
:10390000C2EE011A9FED3B1A80EE812A374D083531
:103910002D68C5F3080501EE105AB8EE411A32EED3
:10392000011AB7EE002A31EE021A21EE810A1DE0DB
:1039300001EE100AB8EE411ADFED2F1A81EE812A4E
:103940009FED2C1AC0EE811A284D08352D68C5F35D
:10395000080501EE105AB8EE411A31EE811AF7EE61
:10396000001A31EE211A22EE010A00BF00BF1F4DDE
:1039700008352D68C5F3462501EE105AB8EE411AF8
:10398000F7EE001A31EE211AC0EE011ABCEEE11A70
:1039900081ED001A154D08352D68C5F3064501EE79
:1039A000105AB8EE411AF7EE001A31EE211AC0EEA5
:1039B000011ABCEEE11A81ED011A0C4D08352D6893
:1039C000C5F3066501EE105AB8EE411AF7EE001A7B
:1039D00031EE211AC0EE011ABCEEE11A81ED021A95
:1039E00003E000250D604D608D6070BD28440258D5
:1039F0000090D003000000460024744C0024744A58
:103A000020BCBE4B70B50146844D2D6805F0030304
:103A1000824D2D68C5F30530804D2D1D2D68C5F3F1
:103A200000147E4D14352D68C5F3CC0515FB04F547
:103A300001EE105AB8EE411AF0EE410A00286FD09C
:103A400023B1012B4ED0022B6BD16BE0734D283D7F
:103A50002D68C5F340153DB3704D283D2D68C5F365
:103A6000C1066F4D25FA06F201EE102AF8EE411A52
:103A700001EE100AB8EE411A81EE812A9FED691A13
:103A8000C0EE811A654D10352D68C5F3080501EEAD
:103A9000105AB8EE411A31EE811AF7EE001A31EEE3
:103AA000211A22EE010A1CE001EE100AB8EE411ABA
:103AB000DFED5D1A81EE812A9FED5A1AC0EE811A60
:103AC000564D10352D68C5F3080501EE105AB8EEB5
:103AD000411A31EE811AF7EE001A31EE211A22EE68
:103AE000010A5BE001EE100AB8EE411ADFED4F1A51
:103AF00081EE812A9FED4B1AC0EE811A474D103599
:103B00002D68C5F3080501EE105AB8EE411A31EEE2
:103B1000811AF7EE001A31EE211A22EE010A3DE079
:103B200077E01DE001EE100AB8EE411A9FED402A41
:103B3000C2EE011A9FED3B1A80EE812A374D1035F7
:103B40002D68C5F3080501EE105AB8EE411A32EEA1
:103B5000011AB7EE002A31EE021A21EE810A1DE0A9
:103B600001EE100AB8EE411ADFED301A81EE812A1B
:103B70009FED2C1AC0EE811A284D10352D68C5F323
:103B8000080501EE105AB8EE411A31EE811AF7EE2F
:103B9000001A31EE211A22EE010A00BF00BF1F4DAC
:103BA00010352D68C5F3462501EE105AB8EE411ABE
:103BB000F7EE001A31EE211AC0EE011ABCEEE11A3E
:103BC00081ED001A154D10352D68C5F3064501EE3F
:103BD000105AB8EE411AF7EE001A31EE211AC0EE73
:103BE000011ABCEEE11A81ED011A0C4D10352D6859
:103BF000C5F3066501EE105AB8EE411AF7EE001A49
:103C000031EE211AC0EE011ABCEEE11A81ED021A62
:103C100003E000250D604D608D6070BD28440258A2
:103C20000090D003000000460024744C0024744A25
:103C300020BCBE4B70B50146844D2D6805F00303D2
:103C4000824D2D68C5F30550804D2D1D2D68C5F39F
:103C500000247E4D1C352D68C5F3CC0515FB04F5FD
:103C600001EE105AB8EE411AF0EE410A00286FD06A
:103C700023B1012B4ED0022B6BD16BE0734D283D4D
:103C80002D68C5F340153DB3704D283D2D68C5F333
:103C9000C1066F4D25FA06F201EE102AF8EE411A20
:103CA00001EE100AB8EE411A81EE812A9FED691AE1
:103CB000C0EE811A654D18352D68C5F3080501EE73
:103CC000105AB8EE411A31EE811AF7EE001A31EEB1
:103CD000211A22EE010A1CE001EE100AB8EE411A88
:103CE000DFED5D1A81EE812A9FED5A1AC0EE811A2E
:103CF000564D18352D68C5F3080501EE105AB8EE7B
:103D0000411A31EE811AF7EE001A31EE211A22EE35
:103D1000010A5BE001EE100AB8EE411ADFED4F1A1E
:103D200081EE812A9FED4B1AC0EE811A474D18355E
:103D30002D68C5F3080501EE105AB8EE411A31EEB0
:103D4000811AF7EE001A31EE211A22EE010A3DE047
:103D500077E01DE001EE100AB8EE411A9FED402A0F
:103D6000C2EE011A9FED3B1A80EE812A374D1835BD
:103D70002D68C5F3080501EE105AB8EE411A32EE6F
:103D8000011AB7EE002A31EE021A21EE810A1DE077
:103D900001EE100AB8EE411ADFED301A81EE812AE9
:103DA0009FED2C1AC0EE811A284D18352D68C5F3E9
:103DB000080501EE105AB8EE411A31EE811AF7EEFD
:103DC000001A31EE211A22EE010A00BF00BF1F4D7A
:103DD00018352D68C5F3462501EE105AB8EE411A84
:103DE000F7EE001A31EE211AC0EE011ABCEEE11A0C
:103DF00081ED001A154D18352D68C5F3064501EE05
:103E0000105AB8EE411AF7EE001A31EE211AC0EE40
:103E1000011ABCEEE11A81ED011A0C4D18352D681E
:103E2000C5F3066501EE105AB8EE411AF7EE001A16
:103E300031EE211AC0EE011ABCEEE11A81ED021A30
:103E400003E000250D604D608D6070BD2844025870
:103E50000090D003000000460024744C0024744AF3
:103E600020BCBE4B2DE9F04389B006460F464FF407
:103E7000807186EA0100384370D1F748006800F08D
:103E80000709B9F1050F65D2DFE809F003122162D5
:103E90003000F1485038006800F00070B0F1007F49
:103EA00004D106A8FFF796FC079C00E0002453E02D
:103EB000E9485038006800F00060B0F1006F04D1AC
:103EC00003A8FFF79FFD039C00E0002444E0E248C4
:103ED0005038006800F00050B0F1005F04D168462F
:103EE000FFF7A8FE009C00E0002435E0DA48001F40
:103EF000006800F04055D8485038006800F00400D1
:103F0000042809D145B9D44850380068C0F3C1012C
:103F1000D24820FA01F41AE0CF485038006800F483
:103F20008070B0F5807F04D1B5F1805F01D1CC4CB9
:103F30000DE0C9485038006800F40030B0F5003F8B
:103F400004D1B5F1005F01D1C64C00E0002403E0CC
:103F5000C54C01E0002400BFD4E3FFE74FF400713B
:103F600086EA010038437AD1BB48006800F4E07962
:103F7000B9F1800F2CD006DCB9F1000F0AD0B9F1ED
:103F8000400F69D115E0B9F1C00F63D0B9F5807F5A
:103F900062D12CE0B0485038006800F00070B0F1F9
:103FA000007F04D106A8FFF715FC079C00E0002461
:103FB00054E0A9485038006800F00060B0F1006F8C
:103FC00004D103A8FFF71EFD039C00E0002445E098
:103FD000A1485038006800F00050B0F1005F04D1F3
:103FE0006846FFF727FE009C00E0002436E09A4870
:103FF000001F006800F0405597485038006800F0F6
:104000000400042809D145B9934850380068C0F32A
:10401000C101924820FA01F41BE08F485038006833
:1040200000F48070B0F5807F04D1B5F1805F01D1DC
:104030008B4C0EE088485038006800F40030B0F532
:10404000003F05D1B5F1005F02D1864C01E006E0EA
:10405000002403E0844C01E0002400BF52E34FF44D
:10406000806186EA010038437BD17B4808300068D4
:1040700000F46009B9F5800F2CD006DCB9F1000F0F
:104080000AD0B9F5001F69D115E0B9F5C00F63D0AA
:10409000B9F5000F62D12CE06F485038006800F08D
:1040A0000070B0F1007F04D106A8FFF793FB079CD6
:1040B00000E0002454E068485038006800F00060D8
:1040C000B0F1006F04D103A8FFF79CFC039C00E053
:1040D000002445E060485038006800F00050B0F11E
:1040E000005F04D16846FFF7A5FD009C00E00024B6
:1040F00036E05948001F006800F0405556485038D7
:10410000006800F00400042809D145B9524850382D
:104110000068C0F3C101514820FA01F41BE04E4889
:104120005038006800F48070B0F5807F04D1B5F19C
:10413000805F01D14A4C0EE047485038006800F4D7
:104140000030B0F5003F05D1B5F1005F02D1454C1C
:1041500001E006E0002403E0434C01E0002400BF3E
:10416000D0E24FF4006186EA0100384373D13A4847
:104170000830006800F0E069B9F1007F2CD006DC5F
:10418000B9F1000F0AD0B9F1807F75D115E0B9F10E
:10419000407F6FD0B9F1806F6ED12CE02E4850383F
:1041A000006800F00070B0F1007F04D106A8FFF7AE
:1041B00011FB079C00E0002460E0274850380068AD
:1041C00000F00060B0F1006F04D103A8FFF71AFC03
:1041D000039C00E0002451E01F485038006800F0C4
:1041E0000050B0F1005F04D16846FFF723FD009C4A
:1041F00000E0002442E01848001F006800F040552D
:1042000015485038006800F00400042809D145B969
:10421000114850380068C0F3C101104820FA01F479
:1042200027E00D485038006800F48070B0F5807FBA
:1042300004D1B5F1805F01D1094C1AE0064850382D
:10424000006800F40030B0F5003F11D1B5F1005F17
:104250000ED1044C0DE012E0504402580090D003FF
:1042600000093D0040787D010080BB0004E001E0D2
:10427000002403E0F74C01E0002400BF42E24FF4C9
:10428000805186EA010038437AD1F348006800F48F
:10429000E048B8F5005F2CD006DCB8F1000F0AD07A
:1042A000B8F5805F69D115E0B8F5405F63D0B8F527
:1042B000804F62D12CE0E8485038006800F0007070
:1042C000B0F1007F04D106A8FFF784FA079C00E054
:1042D000002454E0E0485038006800F00060B0F17D
:1042E000006F04D103A8FFF78DFB039C00E00024BE
:1042F00045E0D9485038006800F00050B0F1005F48
:1043000004D16846FFF796FC009C00E0002436E0EC
:10431000D148001F006800F04055CF485038006871
:1043200000F00400042809D145B9CB485038006892
:10433000C0F3C101C94820FA01F41BE0C648503857
:10434000006800F48070B0F5807F04D1B5F1805F23
:1043500001D1C34C0EE0C0485038006800F4003072
:10436000B0F5003F05D1B5F1005F02D1BD4C01E0D1
:1043700006E0002403E0B74C01E0002400BFC1E1E7
:104380004FF4005186EA0100384367D1B248006813
:1043900000F4E028B8F5403F33D009DCB8F1000F55
:1043A0000DD0B8F5803F0ED0B8F5003F53D119E0DD
:1043B000B8F5802F37D0B8F5A02F4CD13FE001F0F1
:1043C00049FA044649E0A4485038006800F000600B
:1043D000B0F1006F04D103A8FFF714FB049C00E0C8
:1043E00000243AE09C485038006800F00050B0F1DA
:1043F000005F04D16846FFF71DFC019C00E000242B
:104400002BE095485038006800F00400042808D1DB
:10441000914850380068C0F3C101904820FA01F477
:1044200000E0002419E08C485038006800F48070E7
:10443000B0F5807F01D18A4C00E000240DE0864871
:104440005038006800F40030B0F5003F01D1854CD1
:1044500000E0002401E0002400BF53E14FF40021FC
:1044600086EA0100384361D17B480830006800F4D7
:104470004038B8F1000F06D0B8F5803F12D0B8F53B
:10448000003F50D11DE074485038006800F00060D3
:10449000B0F1006F04D103A8FFF7B4FA039C00E069
:1044A000002442E06C485038006800F00050B0F141
:1044B000005F04D16846FFF7BDFB029C00E00024CA
:1044C00033E06548001F006800F0405562485038EE
:1044D000006800F00400042809D145B95E4850384E
:1044E0000068C0F3C1015D4820FA01F41AE05A489F
:1044F0005038006800F48070B0F5807F04D1B5F1C9
:10450000805F01D1564C0DE053485038006800F4EC
:104510000030B0F5003F04D1B5F1005F01D1514C3E
:1045200000E0002401E0002400BFEBE04FF4803104
:1045300086EA010038432CD14748001F006800F488
:104540008038B8F1000F03D0B8F5803F1ED10EE0DF
:1045500041485038006800F00070B0F1007F04D18D
:1045600006A8FFF737F9079C00E0002410E03A485E
:104570005038006800F00060B0F1006F04D103A86B
:10458000FFF740FA059C00E0002401E0002400BF92
:10459000B8E04FF4804186EA0100384372D12E48DA
:1045A0000830006800F0E048B8F1405F33D009DC23
:1045B000B8F1000F0DD0B8F1805F0ED0B8F1005FF8
:1045C0005DD119E0B8F1804F37D0B8F1A04F56D186
:1045D0004AE0FFF7EDF8044653E01F485038006802
:1045E00000F00060B0F1006F04D103A8FFF70AFAF1
:1045F000049C00E0002444E017485038006800F0B4
:104600000050B0F1005F04D16846FFF713FB019C36
:1046100000E0002435E010485038006800F0040045
:10462000042808D10C4850380068C0F3C1010B4879
:1046300020FA01F400E0002423E007485038006825
:1046400000F48070B0F5807F01D1054C00E00024BB
:1046500017E017E00080BB00504402580090D003E0
:1046600000093D0040787D012848006800F40030D2
:10467000B0F5003F01D1264C00E0002401E0002409
:1046800000BF3FE04FF4004186EA0100384338D1D3
:104690001E485030006800F04058B8F1000F06D0B6
:1046A000B8F1805F0ED0B8F1005F27D118E017484D
:1046B000006800F40030B0F5003F01D1144C00E078
:1046C00000241DE01148006800F00070B0F1007F88
:1046D00004D106A8FFF77EF8079C00E000240FE055
:1046E0000A48006800F00060B0F1006F04D103A830
:1046F000FFF788F9049C00E0002401E0002400BFDB
:1047000000E00024204609B0BDE8F08300440258D0
:1047100040787D012DE9F04104460025A8464FF080
:104720000062D4E900101140002013465940404077
:10473000014331D1A06E48B1B0F5801F0DD0B0F566
:10474000001F11D0B0F5401F16D114E0F9480068E1
:1047500040F40030F749086010E0022104F108003D
:1047600004F0C8F9054609E0022104F1280004F02C
:1047700073FA054602E001E0012500BF00BF55B90C
:10478000EC482430006820F44010A16E0843E94949
:104790002431086000E0A8464FF48073D4E900108B
:1047A000194000205940404001432ED1A06D0528FA
:1047B0001BD2DFE800F0030A11181900DD48006879
:1047C00040F40030DB49086011E0002104F10800EA
:1047D00004F090F905460AE0002104F1280004F0F5
:1047E0003BFA054603E002E001E0012500BF00BFFF
:1047F00055B9D0482430006820F00700A16D084367
:10480000CC492431086000E0A8464FF40073D4E995
:1048100000101940002059404040014334D1E06D60
:10482000802818D003DC40B140281DD10CE0C028FE
:1048300018D0B0F5807F17D115E0BE48006840F46D
:104840000030BC49086011E0002104F1080004F0C8
:1048500051F905460AE0002104F1280004F0FCF9B2
:10486000054603E002E001E0012500BF00BF55B9A5
:10487000B0482430006820F4E070E16D0843AD4991
:104880002431086000E0A8464FF48063D4E90010AA
:104890001940002059404040014339D1D4F8A800C4
:1048A000B0F5800F1AD004DC50B1B0F5001F1ED156
:1048B0000DE0B0F5C00F18D0B0F5000F17D115E01E
:1048C0009C48006840F400309A49086011E00021DB
:1048D00004F1080004F00EF905460AE0002104F195
:1048E000280004F0B9F9054603E002E001E00125E3
:1048F00000BF00BF5DB98F482C30006820F4600015
:10490000D4F8A81008438B492C31086000E0A84671
:104910004FF40062D4E900101140002013465940C2
:104920004040014339D1D4F8AC00B0F1007F1AD037
:1049300004DC50B1B0F1807F1ED10DE0B0F1407FBA
:1049400018D0B0F1806F17D115E07A48006840F4B4
:1049500000307849086011E0002104F1080004F0FB
:10496000C9F805460AE0002104F1280004F074F9B2
:10497000054603E002E001E0012500BF00BF5DB98C
:104980006C482C30006820F0E060D4F8AC1008438C
:1049900068492C31086000E0A8464FF00073D4E964
:1049A00000011840002158404940084328D1E06CDC
:1049B000A8B1102804D0202809D0302810D10DE04B
:1049C0005C48006840F400305A4908600AE002215F
:1049D00004F1080004F08EF8054603E002E001E06F
:1049E000012500BF00BF55B952482030006820F0B3
:1049F0003000E16C08434F492031086000E0A846D0
:104A00004FF48053D4E90010194000205940404031
:104A1000014337D1206EB0F5005F1AD004DC50B1ED
:104A2000B0F5805F1ED10DE0B0F5405F18D0B0F555
:104A3000804F17D115E03F48006840F400303D49F1
:104A4000086011E0002104F1080004F053F8054665
:104A50000AE0002104F1280004F0FEF8054603E016
:104A600002E001E0012500BF00BF55B93148243004
:104A7000006820F4E040216E08432E49243108608C
:104A800000E0A8464FF40053D4E90010194000207C
:104A900059404040014335D1606EB0F5403F1ED0D3
:104AA00007DC68B1B0F5803F0BD0B0F5003F19D1FD
:104AB0000EE0B0F5802F13D0B0F5A02F12D110E08A
:104AC00012E0012104F1080004F014F805460BE09F
:104AD000012104F1280004F0BFF8054604E003E0DA
:104AE00002E001E0012500BF00BF55B911482430A4
:104AF000006820F4E020616E08430E49243108600C
:104B000000E0A8464FF48043D4E90001184000219A
:104B100058404940084337D1D4F8B000B0F1405F65
:104B200020D009DC78B1B0F1805F0DD0B0F1005F2A
:104B30001BD110E02C440258B0F1804F13D0B0F1DB
:104B4000A04F12D110E012E0012104F1080003F09F
:104B5000D1FF05460BE0012104F1280004F07CF8A8
:104B6000054604E003E002E001E0012500BF00BFCC
:104B70004DB9FE48006820F0E040D4F8B01008437A
:104B8000FA49086000E0A8464FF40042D4E900105A
:104B900011400020134659404040014329D1206F65
:104BA000B0B1B0F1805F03D0B0F1005F11D108E087
:104BB000EE482C38006840F40030EC492C3908608D
:104BC00009E0012104F1080003F094FF054602E02A
:104BD00001E0012500BF00BF55B9E448083800686E
:104BE00020F04050216F0843E0490839086000E098
:104BF000A8464FF08072D4E90010114000201346FF
:104C00005940404001432AD1A06CB8B1012804D0DA
:104C100002280BD0032812D10FE0D4482C380068AA
:104C200040F40030D1492C3908600AE0022104F137
:104C3000080003F05FFF054603E002E001E0012504
:104C400000BF00BF55B9C9480C38006820F0030008
:104C5000A16C0843C5490C39086000E0A8464FF430
:104C60008002D4E900011040002113465840494019
:104C700008437DD1BE48006840F48070BC4908609C
:104C8000FEF732F9064606E0FEF72EF9801B64288F
:104C900001D9032505E0B648006800F480700028BB
:104CA000F2D000BF85BBB1481830006800F44070F6
:104CB000B4F8B41001F44071884213D0AB481830F6
:104CC000006820F44077A9481830006840F480302C
:104CD000A649183108600846006820F48030086052
:104CE00008460760D4F8B400B0F5807F15D1FEF710
:104CF000FBF8064609E0FEF7F7F8801B41F2883121
:104D0000884202D9032507E038E098481830006847
:104D1000C0F340000028EED000BF55BB00BFB4F880
:104D2000B40000F44070B0F5407F0ED18F48483891
:104D3000006820F47C518F4AD4F8B400104041EA56
:104D400010108A494839086007E0884848380068E8
:104D500020F47C5085494839086084481830006840
:104D6000B4F8B410C1F30B0108438049183101E0D5
:104D700005E001E0086002E0A84600E0A846012244
:104D8000D4E900011040002113465840494008432F
:104D900030D1E06F18281AD005DC48B1082808D0B7
:104DA000102817D10CE0202812D0282812D110E0AA
:104DB00012E0012104F1080003F09CFE05460BE01F
:104DC000012104F1280003F047FF054604E003E059
:104DD00002E001E0012500BF00BF55B96348001F94
:104DE000006820F03800E16F08436049091F08603F
:104DF00000E0A8460222D4E9000110400021134639
:104E000058404940084329D1A06F062816D2DFE850
:104E100000F003040B12131412E0012104F1080046
:104E200003F068FE05460BE0012104F1280003F0C1
:104E300013FF054604E003E002E001E0012500BFA6
:104E400000BF55B94948001F006820F00700A16F56
:104E500008434649091F086000E0A8460423D4E936
:104E600000101940002059404040014329D1D4F896
:104E70009400062816D2DFE800F003040B12131486
:104E800012E0012104F1080003F034FE05460BE0B6
:104E9000012104F1280003F0DFFE054604E003E0F1
:104EA00002E001E0012500BF00BF4DB92F480068B6
:104EB00020F00700D4F8941008432C49086000E063
:104EC000A8462023D4E90001184000215840494059
:104ED000084337D1D4F89000B0F1405F1ED007DC12
:104EE00068B1B0F1805F0BD0B0F1005F19D10EE076
:104EF000B0F1804F13D0B0F1A04F12D110E012E00A
:104F0000002104F1080003F0F5FD05460BE0022145
:104F100004F1280003F0A0FE054604E003E002E0EF
:104F200001E0012500BF00BF5DB91048001F006807
:104F300020F0E040D4F8901008430C49091F0860A5
:104F400000E0A8464023D4E9001019400020594051
:104F5000404001433CD1D4F89C00B0F5406F25D0CF
:104F60000EDCA0B1B0F5806F12D005E058440258B5
:104F700000480258FFFCFF0FB0F5006F19D10EE09A
:104F8000B0F5805F13D0B0F5A05F12D110E012E051
:104F9000002104F1080003F0ADFD05460BE00221FD
:104FA00004F1280003F058FE054604E003E002E0A7
:104FB00001E0012500BF00BF4DB9FE48006820F4A4
:104FC000E050D4F89C100843FA49086000E0A84675
:104FD0008023D4E90010194000205940404001438B
:104FE00035D1D4F8A000B0F5C04F1ED007DC68B1B1
:104FF000B0F5005F0BD0B0F5804F19D10EE0B0F5E1
:10500000004F13D0B0F5204F12D110E012E0002174
:1050100004F1080003F06EFD05460BE0022104F1E7
:10502000280003F019FE054604E003E002E001E079
:10503000012500BF00BF4DB9DE48006820F4604084
:10504000D4F8A0100843DB49086000E0A846082314
:10505000D4E900101940002059404040014317D1C5
:10506000D4F88400B0F5805F07D1022104F1280054
:1050700003F0F2FD08B14FF00108CE48001F0068B0
:1050800020F44050D4F884100843CA49091F08602E
:105090001023D4E90010194000205940404001433A
:1050A00015D1D4F89800B0F5807F07D1022104F122
:1050B000280003F0D1FD08B14FF00108BD48006899
:1050C00020F44070D4F898100843BA4908604FF4AF
:1050D0000022D4E900011040002113465840494005
:1050E000084327D1D4F8A40030B1B0F5803F0AD0EE
:1050F000B0F5003F0FD10DE0002104F1080003F0EE
:10510000F9FC054609E0022104F1280003F0A4FDA2
:10511000054602E001E0012500BF00BF4DB9A548EA
:10512000006820F44030D4F8A4100843A149086076
:1051300000E0A8464FF48023D4E900011840002184
:105140005840494008432DD1D4F88800B0F5801F5D
:1051500006D0B0F5001F0CD0B0F5401F11D10FE004
:1051600094482C38006840F4003092492C3908608B
:1051700009E0012104F1280003F06EFD054602E07C
:1051800001E0012500BF00BF5DB98A48001F00682B
:1051900020F44010D4F8881008438649091F08609D
:1051A00000E0A8464FF48032D4E90001104000210D
:1051B000134658404940084325D1206D18B1B0F539
:1051C000803F10D108E07B482C38006840F4003064
:1051D00078492C39086008E0022104F1080003F046
:1051E00089FC054601E0012500BF00BF55B97148A3
:1051F0000C38006820F48030216D08436D490C396B
:10520000086000E0A8464FF00052D4E900101140B9
:105210000020134659404040014307D1022104F1C8
:10522000280003F019FD08B14FF001084FF40033D6
:10523000D4E900011840002158404940084329D1D1
:10524000D4F88000A0B1B0F5807F06D0B0F5007F23
:105250000CD0B0F5407F0CD109E056482C380068DE
:1052600040F4003053492C39086004E003E002E0C8
:1052700001E0012500BF00BF5DB94E48001F006876
:1052800020F44070D4F8801008434A49091F086090
:1052900000E0A8464FF48012D4E90010114000202D
:1052A000134659404040014309D14248083800683C
:1052B00020F00040616F08433E49083908604FF014
:1052C0008052D4E90010114000201346594040405C
:1052D00001430AD137484838006820F48040D4F8A8
:1052E000B81008433349483908604FF40012D4E934
:1052F000001011400020134659404040014309D19D
:105300002C480838006820F08070E16E0843294975
:10531000083908604FF08042D4E9001011400020A5
:10532000134659404040014311D100BF214848383D
:10533000006820F400401F494839086008460068AA
:10534000D4F8BC1008431B494839086000BF4FF02F
:105350000042D4E90010114000201346594040405B
:10536000014309D113480C38006820F04050616DAA
:10537000084310490C3908604FF40002D4E90010CA
:105380001140002013465940404001430AD10948CA
:10539000001F006820F44000D4F88C100843054931
:1053A000091F08600123002160681840012249405C
:1053B000504001E058440258014306D104F108006E
:1053C00003F098FB054605B1A8460222002160685B
:1053D000104049405040014307D1012104F1080029
:1053E00003F088FB054605B1A84604230020616848
:1053F0001940042240405140084307D1022104F1E2
:10540000080003F077FB054605B1A84608230021F4
:1054100060681840082249405040014306D104F119
:10542000280003F019FC054605B1A846102200210A
:105430006068104049405040014307D1012104F108
:10544000280003F009FC054605B1A84620220020EB
:105450006168114040405140084307D1022104F1E6
:10546000280003F0F9FB054605B1A846B8F1000F86
:1054700002D10020BDE8F0810120FBE72DE9F041D9
:1054800004460D4614B90120BDE8F081BD4800680E
:1054900000F00F00A8420ED2BA48006820F00F00BA
:1054A0002843B84908600846006800F00F00A84289
:1054B00001D00120E8E7207800F0040004280ED194
:1054C000B1492069096801F07001884207D9AE48E6
:1054D000006820F0700021690843AB49086020781B
:1054E00000F00800082811D1A749091D6069096862
:1054F00001F07001884209D9A348001D006820F01E
:10550000700061690843A049091D0860207800F017
:105510001000102811D19C49091DA069096801F4E7
:10552000E061884209D99848001D006820F4E060D5
:10553000A16908439449091D0860207800F0200003
:10554000202811D190490831E069096801F0700103
:10555000884209D98C480830006820F07000E16961
:105560000843894908310860207800F002000228C9
:105570000ED18549E068096801F00F01884207D91A
:105580008148006820F00F00E16808437E49086008
:10559000207800F00100002850D07B48006820F4FB
:1055A0007060A1680843784908606068022807D1E4
:1055B000754818380068C0F34040F8B9012063E727
:1055C0006068032807D1704818380068C0F340604D
:1055D000A0B9012058E76068012807D16A48183847
:1055E0000068C0F3002048B901204DE7664818382C
:1055F0000068C0F3800008B9012045E76248083818
:10560000006820F00700616808435F4908390860B6
:10561000FDF76AFC064608E0FDF766FC801B41F2D8
:105620008831884201D903202EE75748083800689E
:1056300000F038006168B0EBC10FEDD1207800F0C8
:10564000020002280ED15049E068096801F00F01FC
:10565000884207D24C48006820F00F00E1680843F8
:10566000494908604748006800F00F00A8420ED979
:105670004448006820F00F0028434249086008466B
:10568000006800F00F00A84201D00120FCE620785D
:1056900000F0040004280ED13B492069096801F09C
:1056A0007001884207D23848006820F070002169F4
:1056B000084335490860207800F00800082811D117
:1056C0003149091D6069096801F07001884209D2F9
:1056D0002D48001D006820F07000616908432A49C8
:1056E000091D0860207800F01000102811D126490B
:1056F000091DA069096801F4E061884209D22248C5
:10570000001D006820F4E060A16908431E49091DDE
:105710000860207800F02000202811D11A490831B3
:10572000E069096801F07001884209D21648083022
:10573000006820F07000E1690843134908310860EF
:1057400000F0ACF810490968C1F303210F4A515C1D
:1057500001F01F0120FA01F70B48006800F00F006C
:105760001146085C00F01F0027FA00F008490860A5
:105770000848076008480068FDF7B8FE80464046C4
:1057800082E600000020005218440258F833010855
:105790002400002420000024180000243F2202607E
:1057A000174A126802F007024260154A083212686E
:1057B00002F470628260124A0832126802F00F022C
:1057C000C2600F4A0832126802F0700202610C4A8D
:1057D0000C32126802F070024261094A0C321268FF
:1057E00002F4E0628261064A1032126802F070022E
:1057F000C261044A126802F00F020A60704700009A
:10580000104402580020005210B500F047F80D492E
:105810000968C1F303210C4A515C01F01F0120FA11
:1058200001F40848006800F00F001146085C00F021
:105830001F0024FA00F00549086005480460084686
:10584000006810BD18440258F833010824000024F1
:105850002000002400B5FFF7D7FF05490968C1F310
:105860000211044A515C01F01F01C84000BD000054
:105870001C440258F833010800B5FFF7C5FF05497D
:105880000968C1F30221044A515C01F01F01C840BC
:1058900000BD00001C440258F8330108F0B5824EE8
:1058A000366806F0380636B1082E15D0102E15D001
:1058B000182E7DD114E07C4E103E3668C6F340169B
:1058C00046B1794E103E3668C6F3C107774E26FAC8
:1058D00007F000E07548E5E07548E3E07548E1E071
:1058E000714E1836366806F003046F4E1836366867
:1058F000C6F305116C4E1C36366806F001056A4E7B
:1059000024363668C6F3CC0616FB05F601EE106A9F
:10591000B8EE410A002971D024B1012C50D0022CDC
:105920006DD16DE0604E103E3668C6F340163EB352
:105930005D4E103E3668C6F3C1075C4E26FA07F38B
:1059400001EE103AF8EE411A01EE101AB8EE411AC3
:1059500081EE812A9FED581AC0EE011A524E203670
:105960003668C6F3080601EE106AB8EE411A31EE49
:10597000811AF7EE001A31EE211A62EE010A1EE0DA
:1059800001EE101AB8EE411ADFED4C1A81EE812AB1
:105990009FED491AC0EE011A434E20363668C6F311
:1059A000080601EE106AB8EE411A31EE811A00E0E5
:1059B00076E0F7EE001A31EE211A62EE010A5BE0A2
:1059C00001EE101AB8EE411A9FED3D2AC2EE011AFF
:1059D0009FED391A80EE012A334E20363668C6F321
:1059E000080601EE106AB8EE411A32EE011AB7EE5F
:1059F000002A31EE021A61EE810A3DE04EE01DE020
:105A000001EE101AB8EE411ADFED2E1A81EE812A4E
:105A10009FED291AC0EE011A234E20363668C6F3D0
:105A2000080601EE106AB8EE411A31EE811AF7EE5F
:105A3000001A31EE211A62EE010A1DE001EE101A81
:105A4000B8EE411A9FED1E2AC2EE011A9FED1A1AF6
:105A500080EE012A144E20363668C6F3080601EEA1
:105A6000106AB8EE411A32EE011AB7EE002A31EE92
:105A7000021A61EE810A00BF00BF0B4E2036366865
:105A8000C6F34626721C01EE102AB8EE411AC0EE8B
:105A9000811ABCEEE11A11EE100A00E0002001E0CC
:105AA000034800BF00BFF0BD104402580090D0036F
:105AB00000093D0040787D01000000460024744C40
:105AC0000024744A20BCBE4B2DE9F047044614B9AB
:105AD0000120BDE8F087207800F00100002870D098
